:1000000000800020BD010000CDC5000085C50000B6
:1000100085C5000085C5000085C5000085C50000B8
:1000200085C5000085C5000085C50000CDC5000060
:10003000CDC5000085C50000CDE20000D1E2000082
:10004000CDC50000CDC50000CDC50000CDC5000068
:10005000CDC50000CDC50000CDC50000CDC5000058
:10006000CDC50000CDC50000CDC50000CDC5000048
:10007000CDC50000CDC50000CDC50000CDC5000038
:10008000CDC50000CDC50000CDC50000CDC5000028
:10009000CDC50000CDC50000CDC50000CDC5000018
:1000A000114900001D490000CDC50000CDC500006C
:1000B000CDC50000CDC50000CDC50000CDC50000F8
:1000C000CDC50000CDC50000CDC50000CDC50000E8
:1000D000CDC50000CDC50000CDC50000CDC50000D8
:1000E000CDC50000CDC50000CDC50000CDC50000C8
:1000F000CDC5000055F90000CDC500003DD200007F
:10010000CDC50000CDC50000CDC50000CDC50000A7
:10011000CDC50000CDC50000CDC50000CDC5000097
:10012000CDC50000CDC50000CDC50000CDC5000087
:10013000CDC50000CDC50000CDC50000CDC5000077
:10014000CDC50000CDC50000CDC50000CDC5000067
:10015000A9E50000BDE50000D1E50000E5E50000EF
:10016000CDC5000081D50000CDC50000CDC5000083
:10017000CDC50000CDC50000CDC50000CDC5000037
:10018000CDC50000CDC50000CDC50000CDC5000027
:10019000CDC50000CDC50000CDC50000CDC5000017
:1001A000CDC50000CDC50000CDC50000CDC5000007
:1001B000CDC50000CDC50000CDC50000564B4CF2AA
:1001C000205210B51A804DF628121A8000BF00BFC9
:1001D0000CF000FA514B4FF010621A60504A9A60CE
:1001E000504ADA60504A136813F4807304D14F49BF
:1001F0000B604FF4A85313604D4B1A78110703D5C9
:100200001A7842F008021A704A4B4B492A221A7097
:100210004A4A4B4B8B4204D252F8040F43F8040B6A
:10022000F8E7484B484900228B4202D243F8042B9E
:10023000FAE74649464A002352F8230041F82300D2
:1002400001336F2BF8D1434B434A802103F8011B44
:100250009342FBD1414B3D4A1A60414B8A221A70AE
:10026000A3F5805324225A70A0221A709A7992071B
:10027000FCD59A79D406FCD43A4A937903F00C035E
:10028000082B384BF9D103221A7140225A719A79FE
:100290009006FCD5334A9179324B4906FBD5324A58
:1002A000324911600221516020221A709A7902F0BD
:1002B0000C020C2AFAD12E4B2E4A1A602E4B2F4AD2
:1002C0001A6000225A60072243F8042C2C4AC3F813
:1002D0000C2D62B60CF08AFB144B1B68DA0705D5AF
:1002E00028480CF0E5FA284B284A1A60284B1B785E
:1002F0005B0609D5244C254B22689A4204D121483B
:100300000CF0D6FA002323600CF06AF910F006FE18
:100310000EF072F9FEE700BF0E2005403080044069
:10032000823F04000100002B10D0034014D0034092
:1003300002D0074000E00740189AFF1F38790100FB
:100340002087FF1F189AFF1F74ABFF1F0082FF1F3B
:100350000000000000E400E05FE400E008ED00E0E1
:100360000050064000400640448004400000030165
:1003700004800440C010050014E000E0FF76010096
:1003800000002020897BA1621CE00340A5C3945A91
:1003900000F00740FFFFFFFFFFFFFFFFFFFFFFFF32
:1003A000FFFFFFFFFFFFFFFFFFFFFFFFFFFFFFFF5D
:1003B000FFFFFFFFFFFFFFFFFFFFFFFFFFFFFFFF4D
:1003C000FFFFFFFFFFFFFFFFFFFFFFFFFFFFFFFF3D
:1003D000FFFFFFFFFFFFFFFFFFFFFFFFFFFFFFFF2D
:1003E000FFFFFFFFFFFFFFFFFFFFFFFFFFFFFFFF1D
:1003F000FFFFFFFFFFFFFFFFFFFFFFFFFFFFFFFF0D
:10040000FFFFFFFFFFFFFFFFFFFFFFFFDEF9FFFF23
:1004100010B5054C237833B9044B13B10448AFF33E
:1004200000800123237010BD189AFF1F00000000F8
:1004300034790100084B10B51BB108490848AFF3E7
:1004400000800848036803B910BD074B002BFBD0A0
:10045000BDE81040184700BF000000001C9AFF1FB5
:1004600034790100189AFF1F000000000CF01ABA3E
:10047000F0B5364C364A2068364D374F85B040F2DD
:10048000EE2613783BB12B78DB0704D52368396857
:100490005B1A0E2B07D8236811781B1A00293FD04E
:1004A000B3F5FA6FEDD900200BF094FF0C200BF0A0
:1004B000B7FF4FF4FA700CF04BFA00F043FE00F077
:1004C00043FA264806F038FC06F0EEFB40F2B27321
:1004D000984228D003F0A8F801F0C0FB01F0E2FB3D
:1004E00003F078FB03F072FD01F0BAF900F0DAF8DE
:1004F0000E211B480DF084FD1A480EF0C5F8182196
:1005000019480DF07DFD23680393039915480023D6
:100510000A220EF0CDF813480EF0B6F805B0F0BD83
:10052000B342AED9BFE70D4806F006FC062240F202
:10053000E4738DE80C002F2113230022052006F020
:10054000C5FB06F011FB0CF0B3F9C3E7E0A8FF1FF1
:1005500048AAFF1F60AAFF1F64ABFF1F6D040000C5
:1005600050510100A48FFF1F6051010070B586B08B
:100570000CF0CCF93F4C404D286001F0BDFA01F081
:100580007FFA207802F08CF803F034FD00F0FAF9DD
:1005900000F0A2F82378002B46D1384E384A336851
:1005A0000193019B11685B1AC72B07D9336802932B
:1005B000029B136002F084FD237843B93368314A0B
:1005C0000393039B10682D491B1AD12B17D80CF0ED
:1005D0009DF92B682C4E2578C01A306015B9B0F5FE
:1005E000FA6F27D803F0D2FC284A1388632B04D86B
:1005F00001339BB2642B138012D006B070BD244B24
:10060000096804911E78049B1360002E2DD0214EA2
:100610003378002BDBD100F021FE01233370D6E7C5
:100620000023237006B070BD00F09EFD2378002BE0
:10063000CDD1B2E7114B18481B68059305992B469D
:100640000A220EF035F80E2114480DF0D9FC2B4685
:10065000316811480A220EF02BF8022110480DF0E3
:10066000CFFC0D480EF010F8BCE700F01FFF094B5F
:100670001E70ACE70088FF1F389AFF1FE0A8FF1F1D
:10068000489AFF1F409AFF1F3C9AFF1F349AFF1F92
:10069000449CFF1F449AFF1FA48FFF1F7C51010041
:1006A0008C51010010B5012105200CF029F90A2414
:1006B000012105200CF010F932200CF049F900213D
:1006C00005200CF009F932200CF042F9631E13F0FA
:1006D000FF04EDD110BD00BF2DE9F043814D2C6822
:1006E000632C85B000F0BA807F4F804E3B68029348
:1006F0003368029A03F57A73934280F09880DFF8AA
:1007000040927B49D9F80080404610F0E5F9002876
:1007100040F094807749404610F0E8F9002840F016
:100720008D80D9F804907249484610F0D5F9002818
:1007300040F088806F49484610F0D8F9002840F012
:100740008180494640460FF015FF0021804610F099
:10075000D7F9002800F0B3804046674910F0C6F989
:1007600010B1664B0122DA70654B6649D3F8008000
:10077000404610F0B1F900285CD14046624910F0C3
:10078000B5F9002856D1614B1A6842F227339A42D4
:100790001CD95F4B5F49D3F80080404610F09CF9AC
:1007A000002800F08480554B01229A725A4B5B4915
:1007B000D3F80080404610F08FF920B940465849E0
:1007C00010F094F910B14D4B0122DA72554BD3F869
:1007D00000804FF08141404610F07EF9002839D169
:1007E0004046514910F082F9002833D14F4BD3F8DD
:1007F00000804FF08141404610F06EF930BB40461A
:10080000494910F073F908BB494BD3F800804FF009
:100810008141404610F060F920B94046454910F04A
:1008200065F910B1354B01229A75622C2AD005B0BA
:10083000BDE8F083314B01221A71A4E72F4B01224E
:100840005A706EE72D4B01229A707AE72B4B0122EA
:100850005A75D9E7294B01221A75C7E7224A364B48
:1008600012681B680192019A03F59C530833934266
:10087000DDD20023194605202B600CF02DF805B0C1
:10088000BDE8F083DFF8BC8098F80040652C09D8FB
:100890001A4A135D13B115E0135D9BB90134E4B23C
:1008A000662CF9D1002388F800302B60BFE7404662
:1008B000224910F01BF900283FF478AF73E708F1E4
:1008C00000404AE73B680393039B33600121002308
:1008D000052013550CF000F8631C2C6088F80030DC
:1008E000A5E700BF0488FF1FE0A8FF1FBC9AFF1FF9
:1008F000295C4F40CDCC5C40CDCC4C3D549AFF1F81
:10090000089CFF1F295CCF40CDCCDC40349CFF1FEE
:10091000FC9BFF1F00001041D49BFF1F3333D340CB
:100920000000E04038A3FF1F0000484234A3FF1F2F
:1009300048A3FF1F00002A43C09AFF1F0000384150
:1009400010A3FF1F4C9AFF1F38B50D4C204603F033
:10095000B1FC0125D02320466B2184F8633084F854
:10096000AE5084F8AD5003F091FC2046002103F016
:100970008DFC29462046BDE8384003F031BE00BF5B
:100980006C8DFF1F2DE9F04FC74B1B7891B05BB109
:10099000C64AC74B12681B680D920D9A03F51C538B
:1009A00010339342C0F06D81C24CD02301253B210E
:1009B000204684F8633084F8AE5084F8AD5003F0DC
:1009C00065FC0021204603F00BFE2B4620460E223C
:1009D000682103F08FFE94F860C094F86190CC45D4
:1009E00080F0578104EB0C020CEB0503DBB2117EA7
:1009F00084F8603099454FEA012140F2498123444F
:100A0000DFF8E0B21B7EDBF800200CF102085FFA91
:100A100088F80B439918C845CBF8001084F860801B
:100A200080F08A82A0440CF1030398F818205FFA42
:100A300083F8C8454FEA022284F8608080F07C8207
:100A4000A0440CF1040C98F818305FFA8CFC1A439F
:100A500084F860C0984E3368E1451A44326040F231
:100A6000548104EB0C000CF1010390F818E091485C
:100A7000DBB24B454FEA0E2E84F8603080F04481A3
:100A800003440CF1020C1B7E5FFA8CF843EA0E0E55
:100A900080F86080894B03931D461B68C1459E44C6
:100AA000C5F800E040F23B8204EB080308F10105C1
:100AB000187E804BEDB24D454FEA002084F860501F
:100AC00080F02E821D4408F1020C2D7E5FFA8CFC12
:100AD000284383F860C07A4B02931F461B68E145A8
:100AE00018440490386040F2048104EB0C030CF1CC
:100AF000010093F818806F4BC0B248454FEA0828B0
:100B000084F8600080F0F48018440CF1020C007E40
:100B10005FFA8CF583F8605040EA080CDFF8C88172
:100B2000D8F800304D4563440793C8F8003080F092
:100B3000EE816319681C93F818A05E4B5FFA80FC85
:100B4000CC454FEA0A2A84F860C080F0E08103EBCC
:100B50000C0005F1020C007E5FFA8CFC40EA0A00F2
:100B600083F860C0574D2B68E145034405932B6023
:100B700040F28B8004EB0C000CF10103DBB2007E31
:100B8000DFF830A184F860304B454FEA00207CD27A
:100B900053440CF1020C1B7E8AF860C043EA000A41
:100BA000494CDFF848912068D9F80030504403F1EF
:100BB000010ABAF1320F06902060C9F800A05DDD8D
:100BC00091FBFAF392FBFAFC1F4608933F4B9EFB06
:100BD000FAFE1B6801933E4B1A683E4B1968019B55
:100BE000DF1BCCEB02030993CEEB01030A933A4BD4
:100BF0000B9700201870019B53B34AB341B3002FE9
:100C00003946B8BF7942A1F51C53103BB3F5FA5FE2
:100C100080F05E81314A13680133136044F24F6300
:100C2000994200F36F81099A002AB8BF524245F2F7
:100C3000C3439A4200F366810A9A002AB8BF52421F
:100C400041F2CB039A4200F35D81254B00221A60EA
:100C5000164B1A680E920E9942F2107291425FD8AA
:100C6000039A00231360029AC9F80030CBF80030D1
:100C700033601360C8F800302B60236011B0BDE80A
:100C8000F08F094A002313708EE64FF0FF3A87E792
:100C90009C46DFF850B0DBF800100139CBF80010AB
:100CA0004FF0FF32D6E600BF109BFF1FE0A8FF1FEA
:100CB000D09AFF1F6C8DFF1FD89AFF1FDC9AFF1F71
:100CC000FC9AFF1FF89AFF1F009BFF1FC49AFF1F8B
:100CD000C89AFF1FCC9AFF1FF09AFF1FE49AFF1FCC
:100CE000E09AFF1FD49AFF1FF49AFF1F089BFF1F73
:100CF0008446DFF8B482D8F80030013B0793C8F887
:100D000000304FF0FF302DE79C468F4B03931D467C
:100D10001B6803F1FF3EC5F800E04FF0FF30DAE654
:100D20008A4A1268012A7FDD1B680F93884B0F994E
:100D3000884A196001231370874A88481370884ACB
:100D40000A2113700DF05CF986480DF09DFC0B2113
:100D500085480DF055F90B9982480029B8BF4942E2
:100D60000DF0E6FC7F480DF08FFC0B217F480DF065
:100D700047F909997B480029B8BF49420DF0D8FCD2
:100D800078480DF081FC0B2179480DF039F90A996A
:100D900074480029B8BF49420DF0CAFC71480DF0F3
:100DA00073FCD9F800A0DBF8001091FBFAF308936C
:100DB000039B32681B6892FBFAFC93FBFAFE029AD3
:100DC000D8F8003007932B681268059323680492C3
:100DD0000693049B93FBFAF0664B089A1A60664BE5
:100DE000C3F800C0654BC3F800E00FF079FC64491C
:100DF0000FF07EFD63490FF0BFFB0FF0A1FE079BD4
:100E0000069F93FBFAFCDFF8A4E1059B5E4993FB88
:100E1000FAF35E4A97FBFAFA5D4FCEF800C03860ED
:100E20000B60C2F800A01BE75A4B1B68632BD0DD98
:100E3000494F594800223A70494A02231121137040
:100E40000DF0DEF847480DF01FFC0B2146480DF071
:100E5000D7F80B9943480029B8BF49420DF068FC08
:100E600040480DF011FC0B2140480DF0C9F80999DC
:100E70003C480029B8BF49420DF05AFC39480DF0F2
:100E800003FC0B213A480DF0BBF80A9935480029BC
:100E9000B8BF49420DF04CFC32480DF0F5FB029B07
:100EA000D9F800A01B680493D8F8003007932B688A
:100EB000059323680693DBF8001091FBFAF308937F
:100EC000039B32681B6892FBFAFC93FBFAFE80E7F7
:100ED000099B002BB8BF5B42A3F51C53103B42F6A5
:100EE000B35293427FF696AE0A9B002BB8BF5B428B
:100EF000A3F5FA7340F6D76293427FF68BAE134B9D
:100F000018608BE6234A136801331360A0E6234D73
:100F10002B68013B05932B604FF0FF3A40E64546B6
:100F20001F4B029318461B68013B1F460493034660
:100F30004FF0FF3C1F60F1E51A4E3268013A326013
:100F40004FF0FF3EA6E500BFDC9AFF1FE49AFF1FAB
:100F5000D09AFF1FF19AFF1F109BFF1F90510100B5
:100F6000F09AFF1FA48FFF1F9C510100A8510100A0
:100F7000B4510100C49AFF1FC89AFF1FCC9AFF1FEB
:100F80000000AA43B81E1242EC9AFF1F0C9BFF1FE1
:100F9000049BFF1FE09AFF1FC0510100F89AFF1F3A
:100FA000FC9AFF1FD89AFF1FF49AFF1FE89AFF1FB1
:100FB00000207047704700BF38B5044600F10805AF
:100FC000D4F8B430284698474FF6FD73984201D9BB
:100FD000012038BD0346B4F8BA20B4F8B81028464A
:100FE00004F0F6FE94F89030032BF1D8DFE803F01C
:100FF000140E0802B4F8BA30181AA4F8BA00E7E7D9
:10100000B4F8B830181AA4F8B800E1E7B4F8BA3068
:101010001844A4F8BA00DBE7B4F8B8301844A4F8D0
:10102000B800D5E72DE9F0471546002A4ED0044612
:101030000F46DFF89C90002600F108084FF6FD7A75
:1010400003E00120013D064425D0236817F8011B69
:101050001B684B4537D1D4F8B430404698475045CB
:10106000EFD80346B4F8BA20B4F8B810404604F0FC
:10107000AFFE94F89030032BE3D8DFE803F01D16A1
:101080000F02B4F8BA30181AA4F8BA00013D4FF0B4
:1010900001000644D9D13046BDE8F087B4F8B83035
:1010A000181AA4F8B8000120CCE7B4F8BA301844F4
:1010B000A4F8BA000120C5E7B4F8B8301844A4F881
:1010C000B8000120BEE720469847BBE71646E2E796
:1010D000B90F000008B5144804F0A8FB13491248E2
:1010E00004F01EFF124B10480C22042104F0DEFE17
:1010F000104B0D481E220E2104F0D8FE0E4B0A485C
:101100003222182104F0D2FE0C49074804F008FFEF
:101110000B4B05483C22642104F0C8FE024804F051
:101120009BFB0028DAD108BD1C9BFF1F346B01001C
:1011300004520100145201002452010068680100A9
:101140003052010010B5074C204605F0DDFA20466C
:1011500004F0ACFB2046002105F0DEFABDE81040AB
:10116000FFF7B8BF1C9BFF1F10B58EB005F09CFDAC
:101170003449024606A810F01DFD05F085FD3249F0
:10118000024601A810F016FD05F06EFD2E4902463C
:1011900002A810F00FFD02A908A810F031FD2F24BD
:1011A000047001A9013010F02BFD06A90470013074
:1011B00010F04AFD05F028FD2349024603A810F06F
:1011C000F9FC05F031FD2049024604A810F0F2FCBC
:1011D00005F03AFD1C49024605A810F0EBFC03A9F6
:1011E0000BA810F00DFD3A2404A90470013010F092
:1011F00007FD05A90470013010F026FD134804F026
:1012000015FB1349114804F08BFE124B0F480822BE
:10121000042104F04BFE10490C4804F081FE08AB99
:101220001A221421094804F041FE0BAB2E221E2184
:10123000064804F03BFE054804F00EFB0028E0D110
:101240000EB010BD38520100405201001C9BFF1F20
:10125000C857010048520100346B010000B5134B20
:1012600093E8070085B001AB03C311481A8004F06E
:10127000DDFA10490E4804F053FE0F4B0C480822CB
:10128000042104F013FE0D49094804F049FE01ABA6
:1012900023221421064804F009FE054804F0DCFA74
:1012A0000028E6D105B05DF804FB00BF5C520100E8
:1012B0001C9BFF1FC857010048520100AC5F010092
:1012C0002DE9F04F8FB004460E4606A87049714DC7
:1012D00092469B460DF034FC214606A80DF0C0FC5A
:1012E00006A803A9002303220DF0F6FC002402E067
:1012F000662C00F0CB8055F8341030460FF0ECFB34
:1013000005EBC40301340028F2D058680FF018FC34
:101310000446614906A80DF04FFC214606A80DF0D1
:101320009FFC5E4906A80DF08DFC0023052204A950
:1013300006A80DF0D1FC584906A80DF03DFC02228C
:1013400031460AA80DF01EFC0AA906A81FFA8BFB5D
:101350000DF074FC0AA81FFA8AFA0DF0B1FB0BF12C
:1013600009074F4906A80DF06DFCBFB20AA900237A
:10137000062206A80AF11E080DF0AEFC1FFA88F836
:1013800003AB3A46002147480BF10A0404F08EFDF6
:10139000A4B243465A4651464248CDF800B004F044
:1013A000A3FE4346414600945A463E4804F09CFE44
:1013B00041462246009453463A4804F095FE2246A0
:1013C000534651463748CDF800B00BF1040404F001
:1013D0008BFEA4B20AF11F01224689B203233148D1
:1013E00004F032FE0AF12001224689B203232D487F
:1013F00004F02AFE0AF12C0104AB3A4689B22948CE
:1014000004F054FD0AF14D013A460AAB89B2254871
:1014100004F04CFD4FF000094FF00008002401E0FB
:10142000662C25D055F8341030460FF055FB05EBEF
:10143000C40701340028F3D078680FF081FB0FF067
:101440004FF90146484608F101080FF03BFBB8B1DF
:101450000BF101020AEB080192B289B2092311488B
:1014600004F0F2FD484610490FF086F88146D5E7B2
:101470000021484608F101080FF024FB0028E7D1BD
:1014800006A80DF01DFB0FB0BDE8F08F044640E745
:10149000685201000888FF1F807301006C52010030
:1014A000705201001C9BFF1F00006040F0B5584DBA
:1014B000584E696828688BB00FF05EF84FF07C5189
:1014C0000FF062F90024074602E0662C00F09D80D0
:1014D00056F8341038460FF0FFFA06EBC403013417
:1014E0000028F2D058680FF02BFB044602A84A49A6
:1014F0000DF026FB214602A80DF0B2FB02A84749D9
:101500000DF0A0FB0023052202A869460DF0E4FBC4
:1015100002A841490DF050FB696828680FF02CF8CB
:101520000222014606A80DF02DFB06A902A80DF027
:1015300085FB06A80DF0C4FA02A839490DF082FB1C
:1015400002A806A9002306220DF0C6FB354804F0C8
:101550006DF914E020460FF0B5FA334920B9304652
:101560000FF0B0FA002843D0304B2E483C220C211B
:1015700004F09CFC2B4804F06FF9002833D02C4970
:101580002848234E04F0CCFC2A4B2648082204218C
:1015900004F08CFC1023122229680120FFF790FE32
:1015A0002123122269680220FFF78AFE22491D4882
:1015B00004F0B6FC2C68214920460FF0A1FA1F491F
:1015C00030B9766830460FF09BFA17490028C1D031
:1015D0001B4B14483C22002104F068FC114804F025
:1015E0003BF90028CBD102A80DF06AFA0BB0F0BD90
:1015F0006B463C2207210B4804F058FC06AB3C220A
:101600004721084804F052FCB4E704466EE700BFE7
:1016100010A3FF1F0888FF1F807301006C52010098
:10162000705201001C9BFF1F9A994940985201007B
:10163000C857010074520100AC5F010033336340AE
:101640008852010030B5134C134B144A236004F147
:10165000080583B000232846C4F8B4202371A4F8F9
:10166000B830A4F8BA3004F0CBFE0D4820600D4B22
:101670000D4A0E49284604F02FF919221823019229
:101680000093284604232022212104F083F803B08C
:1016900030BD00BF149BFF1FDC510100F16300004F
:1016A000F451010091560000915700003C70010078
:1016B0002DE9F043002585B02E46322415200AF08E
:1016C000E3FE064416200AF0DFFE013C0544F5D196
:1016D0004D4CF01784FB0636C0EB26100FF000F8D7
:1016E000064684FB0530ED17C5EB20100EF0F8FF21
:1016F0004649044630460FF047F84449054620461F
:101700000FF042F84249044628460EF033FF4149A3
:10171000054620460EF02EFF3F49044628460FF0AE
:1017200033F83E49064620460FF02EF83C49044661
:1017300030460FF0C7F9002859D13A4930460FF02A
:10174000D7F83749804620460FF0BCF9002857D11A
:10175000344920460FF0CCF80746334D334A2B6806
:101760000193019B1168324ADFF8EC905B1A136019
:1017700018460EF0B1FF41460FF006F82D49DFF88C
:10178000DC800FF0B5F82C490EF0FEFF2B4B014624
:101790001960D9F800000EF0EFFE2B68284A02937A
:1017A000029BC9F800001068264A181A264B1060E0
:1017B0001E600EF091FF39460EF0E6FF1D490FF056
:1017C00097F81D490EF0E0FF204B01461960D8F84C
:1017D00000000EF0D1FE2B6803931D4A1D4B0399A8
:1017E000C8F8000011601C6005B0BDE8F0834FF040
:1017F00000080B49204646460FF064F90028A7D0A0
:1018000000242746A9E700BF1F85EB513333533A25
:10181000355E2A40C1CA29403E79A640CA328E4070
:10182000CDCC4C3E00007A44E0A8FF1FF49BFF1F84
:10183000EC9BFF1F00BA5B4A00247449E89BFF1F22
:10184000D09BFF1F1C9CFF1F0C9CFF1F009CFF1FB9
:10185000E49BFF1F149CFF1FD89BFF1F109CFF1FC2
:1018600000B5002183B015200BF04AF800211620A6
:101870000BF046F8002117200BF042F80021102051
:101880000BF03EF8002111200BF03AF8064B074907
:101890001A68019201981B680093009A044B086033
:1018A0001A6003B05DF804FBE0A8FF1FF49BFF1F64
:1018B000D09BFF1F2DE9F04F0D2083B00BF012F8E5
:1018C000B0FA80F149090D200BF006F810200AF05B
:1018D000DBFD5D4E5D4D5E4C5E4FDFF8A0810EF08E
:1018E000FFFE5D490EF050FF31680EF045FE30609E
:1018F00011200AF0C9FD0EF0F3FE57490EF044FF27
:1019000029680EF039FE286017200AF0BDFD0EF0A0
:10191000E7FE51490EF038FF21680EF02DFE2060E1
:1019200014200AF0B1FD0EF0DBFE4B490EF02CFF47
:1019300039680EF021FE0246D8F800003A60013006
:1019400002280092C8F8000055DD0EF0C9FE81465D
:10195000014630680EF0CCFF40490EF015FF404ABA
:10196000034613604946286801930EF0C1FF3D49C4
:101970000EF00AFF3C4B83464946C3F800B020688E
:101980000EF0B6FF39490EF0FFFE009A384B824642
:1019900049461046C3F800A00EF0AAFF35490EF0E4
:1019A000F3FE019B009002461846334B4FF00009AE
:1019B0000021C8F800101A604FF07E51C7F800905F
:1019C000C6F80090C5F80090C4F800900FF07AF8BF
:1019D00028BB58464FF07E510FF074F848BB504674
:1019E0004FF07E510FF06EF870B900984FF07E51B5
:1019F0000FF068F810B903B0BDE8F08F1E4A00235D
:101A0000136003B0BDE8F08F194A009800231360FB
:101A10004FF07E510FF056F80028ECD0EEE7104B57
:101A20005846C3F800904FF07E510FF04BF8002855
:101A3000D5D00D4A0023136050464FF07E510FF071
:101A400041F80028D1D0DFE7E09BFF1F049CFF1F77
:101A5000DC9BFF1FF89BFF1F3333533A29738141EF
:101A6000FC9BFF1F9A4EFB40D49BFF1F098ADF3F60
:101A7000F09BFF1F1081F740089CFF1F189CFF1F61
:101A800000B583B0FFF716FF074B084A1B680193A8
:101A9000019B12689B1AB3F5FA7F01D3FFF708FE8A
:101AA00003B05DF804FB00BFE0A8FF1FE49BFF1F2D
:101AB000064B07491A6882B0009200981B68019390
:101AC000019A044B08601A6002B07047E0A8FF1F3B
:101AD000F49BFF1FD09BFF1F024A13680133136062
:101AE000704700BF2C9CFF1F024A1368013313602C
:101AF000704700BF409CFF1F2DE9F0474B4C4C4EF8
:101B000023683C2B6BDD0AF001FF21683268494DE8
:101B1000494BDFF84081801AB3FBF0F001FB00F085
:101B20000EF0DAFD29680EF027FD0746D8F8000010
:101B30002F6001304FF000090728C8F80000C4F8F2
:101B4000009063DC3D4F3E4C0AF0E0FE23683060BD
:101B50003C2B3C4E51DD0AF0D9FE216832683A4DEB
:101B6000354BDFF8F480801AB3FBF0F001FB00F096
:101B70000EF0B2FD29680EF0FFFC8246D8F8000096
:101B8000C5F800A001304FF000090728C8F8000090
:101B9000C4F800900DDD0EF0A3FD014650460EF096
:101BA000A7FE0EF0F3FF294AC8F80090002310604A
:101BB0002B600AF0ABFE30603B682049A3F6AC53C3
:101BC00046F28472934204D8214B01221A70BDE878
:101BD000F0871F4A002313700B60BDE8F0870AF0FE
:101BE00095FE336803F57433903398428BD8144CC8
:101BF000124F2368134E3C2BADDC0AF087FE33688E
:101C000003F5743390339842A5D8D5E70EF068FDFC
:101C1000014638460EF06CFE0EF0B8FF074FC8F8CC
:101C20000090002338602B608DE700BF2C9CFF1FC5
:101C3000489CFF1F209CFF1F00879303349CFF1FBD
:101C4000409CFF1F289CFF1F249CFF1F309CFF1FF0
:101C5000449CFF1F3C9CFF1F389CFF1F022108B5BE
:101C600008460AF04DFE022210460A490AF05AFDC3
:101C7000022103200AF044FE0222074903200AF051
:101C800051FD172105480CF0BBF90548BDE8084097
:101C90000CF0FABCD91A0000E91A0000A4520100A5
:101CA000A48FFF1F70B51F4D1F482B6884B0002400
:101CB0000193019E02F05EFE2B680293029B9B1B28
:101CC000B3F5487F0ED2194B194A1A49164802F04B
:101CD00023FF2B680293029B9B1B0134B3F5487FC3
:101CE000E4B2F0D31A2114480CF08AF900230A2236
:101CF000214612480CF0DCFC062111480CF080F95A
:101D0000092110480CF07CF92B68039303990B48C8
:101D1000891B00230A220CF0CBFC08480CF0B4FC11
:101D200004B070BDE0A8FF1FF89FFF1F589CFF1F65
:101D3000299EFF1FD89FFF1FBC520100A48FFF1FC9
:101D4000D8520100E052010070B4304A30491368A3
:101D5000097883B00093009809BB2E4B19782E4B5D
:101D600002291C7805D003294AD0022902D92B4B1D
:101D700001E0A4B92A4B1B782A4D2B4E013B35F8C4
:101D8000135036F813309D4228D1284B195D31B9D4
:101D900012680192264A0199116001221A55002207
:101DA0002448254C0178254D44F821204B1CDBB2FA
:101DB000642B08BF00230370214B00242C602146B4
:101DC00003F5C87053F8042F8A4284BF11460124DA
:101DD0008342F7D1BCB903B070BC7047134D2B5D83
:101DE000002BDCD0124B1B68C31A9BB201290CBF1D
:101DF00003F1090203F11202002392B22B55CFE73F
:101E0000002CB4D1CBE72960E5E700BFE0A8FF1FB5
:101E10002C9EFF1F4C9CFF1F289EFF1F2B9EFF1F09
:101E20002A9EFF1FD89FFF1F089EFF1F049EFF1FB3
:101E3000FC9DFF1F009EFF1F44A1FF1FD09FFF1F9F
:101E400040A1FF1F404B41491B780022012B0A7023
:101E50005AD070B53E4B3F4D1B783F4C013B82B092
:101E600035F8136034F813309E423C4B1B7803F175
:101E7000FF3331D035F8135034F813309D4224D05D
:101E8000374C384D23682A700133012223600A70D1
:101E9000054618460EF020FC334B344C06461868B5
:101EA0000EF01AFC014630460EF022FD30490EF0CD
:101EB0006BFC01462E480EF05DFB20601DB92D49DC
:101EC0000EF000FE18BB02B070BD264B1C7864B14A
:101ED00023491A700B68DBE735F8132034F8133008
:101EE0009A4209D01F4A13784BB31D4A1368012444
:101EF000234413600C70CBE71A49194B0A781B680E
:101F000082F001020A70C3E7164B1A707047232152
:101F100019480CF075F820680DF0DCFF0224024629
:101F20000B46009415480CF00BFC012114480CF0F2
:101F300067F8124802B0BDE870400CF0A5BB084B32
:101F400001211B681170A3E74C9CFF1F2C9EFF1FF3
:101F50002A9EFF1F089EFF1FD89FFF1F2B9EFF1F5B
:101F600038A1FF1F289EFF1FEC9DFF1F509CFF1FE5
:101F70000000C8420000C342EC520100A48FFF1FC2
:101F80006C520100F0B42A4B1A7882B0002A2FD08C
:101F9000284A1378002B43D1274B284D1B6828492A
:101FA0000093284C28680B68274E009F2760012467
:101FB000013046F82340286014700133632B234A14
:101FC00088BF00230B6002F5C870002352F8041F7D
:101FD0000B4482429BB2F9D1642B98BFC3F16403D6
:101FE0001B4A94BF9BB20023138002B0F0BC704721
:101FF000134910480B68144D047845F82320002C31
:10200000DBD00D4A0F4D1268124C01922E68019AD6
:102010002568921BAA4288BF226000220270CCE78A
:102020000749094A0B68002042F82300C5E700BFB2
:10203000589CFF1FD4A2FF1FE0A8FF1F349EFF1F64
:10204000F89DFF1F34A1FF1F5C9CFF1F589CFF1FC2
:10205000549CFF1F40A1FF1F10B4154B1B7883B089
:102060008BB1144B1A785AB9134A1449106800906E
:102070000A681348009C0460013201200A6018704D
:1020800003B010BC70470B4A1378002BF8D00A4BF2
:102090000B481B680B4901930468019B08681B1BD4
:1020A000834288BF0B600023137003B010BC7047DD
:1020B000299EFF1FCC9FFF1FE0A8FF1F309EFF1F20
:1020C000F09DFF1FD49FFF1F2DE9F04FB54D91B03C
:1020D0002B680793079B03932B680693069B2B683B
:1020E0000593DDF81490019200230C9380468B46F3
:1020F00013701C4602930D930E930F931F462B688B
:102100000893089BC9EB0303C72B40F2C2800B2145
:10211000A548019FDFF8C0A20BF072FF2146A3483B
:102120000CF006FBA1480CF0AFFA1621A0480BF00A
:1021300067FF00230A2239789C480CF0B9FA9B48C3
:102140000CF0A2FA28219B480BF05AFF00230A2228
:1021500098F8001095480CF0ABFA94480CF094FAFB
:10216000282195480BF04CFF00230A229BF8001011
:102170008E480CF09DFA8D480CF086FA2B68099376
:10218000099E4FF000092B680A930A9B9B1BC72BE3
:1021900040F2C38098F80030002C00F03081002B12
:1021A00000F038819BF8003043B902233B7098F867
:1021B0000030002B00F02E819BF80030002B40F007
:1021C00058810B2178480BF01BFF214677480CF013
:1021D000AFFA76480CF058FA282176480BF010FF39
:1021E00000230A2298F8001070480CF061FA6F483A
:1021F0000CF04AFA282170480BF002FF00230A2253
:102200009BF8001069480CF053FA68480CF03CFA4F
:10221000162167480BF0F4FE00230A223978634840
:102220000CF046FA61480CF02FFA102163480BF0CD
:10223000E7FE2B680B930B99039B5C48C91A0A2293
:1022400000230CF035FA59480CF01EFA98F80030CB
:10225000002B40F0EC809BF80030002B00F0FF805A
:102260001E2157480BF0CCFE00230A229BF80010D9
:102270004E480CF01DFA4D480CF006FA98F8003064
:1022800023B99BF80030002B00F0E98011B0BDE8C5
:10229000F08F05200AF05CFB4A4B4B4A4B494C48F7
:1022A00002F03AFC00283FF42AAFDFF830E1494859
:1022B000F4460EAE092102882AB10CB90137FFB2EB
:1022C0000B2F28BF01243CF8023FD31A002BB8BFC4
:1022D0005B420C3B082B0FD833789BF800A00133EE
:1022E000DBB29A45337002D28BF8001002883A4B69
:1022F0004FF0010A83F800A0013111292EF8022FB6
:1023000000F1020006F10106D5D1029B0133DBB2D8
:10231000142B02933FF4FBAEF1E605200AF018FB04
:10232000284B294A29492A4802F0F6FB00283FF4A5
:102330002AAFDFF8ACC0254A0DF1300E012123E0B1
:10234000CBB9BCF80030C31A002BB8BF5B42063BC8
:10235000042B10D89EF8003098F800000133DBB24F
:10236000984238BF88F800108EF8003010884FF07F
:1023700000038AF80030013109292CF8020B02F120
:1023800002020EF1010E2DD03B781088032BD7D11D
:10239000BCF80030C31A002BB8BF5B420C3B082BC3
:1023A000D8D9E8E7E0A8FF1F10530100A48FFF1F52
:1023B000745301001C530100485301008C53010069
:1023C000C0530100589CFF1F299EFF1FD89FFF1F6D
:1023D000F89FFF1FE89FFF1F289EFF1F169EFF1FED
:1023E000089EFF1F09F101095FFA89F9B9F1140F7D
:1023F0007FF4C9AE98F80030002C7FF4D0AE002BEB
:102400003FF4DFAE9BF80030002B7FF4DAAE0123FF
:102410003B70D6E69BF80030002B3FF4D2AE03238E
:102420003B7098F80030002B3FF4CBAEC4E61D2182
:1024300011480BF0E5FD00230A2298F800100F4820
:102440000CF036F90D480CF01FF99BF80030002B0A
:102450007FF406AF98F80030002B7FF417AF1621F9
:1024600007480BF0CDFD05480CF00EF911B0BDE8A2
:10247000F08F04233B70A4E6A0530100A48FFF1F3C
:10248000E0530100F8B54E4D2C78002C00F08A8006
:102490004C4B022C1D785AD94B4A4C4B12784C4964
:1024A000013A33F8123031F812209B1A002BB8BFD2
:1024B0005B429BB2474E32884A2A66D913229A421F
:1024C00069D2B3FBF2F3444944480A68042C02D0B1
:1024D0000B2B98BF5B0040F82230414B1B7813B1A7
:1024E000012340F822300132632A98BF0A603D4A36
:1024F00084BF00230B6002F5C870002352F8041F4C
:102500000B4490429BB2F9D1642B3380364A9ABF78
:10251000C3F164039BB20023338013682D4AB3F5E3
:102520007A7F04D2012C48D001D910211180A3F563
:102530007A72B2F57A7F02D2032C07D03580A3F2EB
:10254000DC53B3F5FA7F01D2042C32D0F8BD6A1EF9
:102550001E4B1F4933F8123031F812209B1A002B02
:10256000B8BF5B42012C9BB2A4D11A4E32884B2AD1
:1025700034BF09270B27BB420DD9B3FBF7F316492C
:1025800016480A6840F82230A7E7322A34BF1122E1
:1025900012229A4295D3104910480A68002340F845
:1025A00022309AE72A4608490648FFF78DFD2C7825
:1025B0006EE7054B1B783380F8BD08211180BEE71C
:1025C0004C9CFF1F2A9EFF1F2B9EFF1FD89FFF1FA3
:1025D000089EFF1FCA9FFF1F3CA1FF1F389EFF1FC1
:1025E000299EFF1F349EFF1FEC9DFF1F38B5234B14
:1025F000234A1B881488234A234D1278C3F16203AF
:1026000003EB83039B00C4F14B041BB204EB4404B3
:1026100024B223EAE373002CC3F16403ACBF1C1B98
:102620001C46012AE4B226D9184B194819680DF046
:10263000A1FF18490EF0A8F80EF082FA00B20028A7
:10264000A8BF241A60B2144B0F4A1C68303C24B255
:10265000002CACBF041B044664B2002C2C7002DBBF
:102660000E4B1B7813B100232B7038BD642CC4BFF4
:102670006423137038BD60B2E5E700BF549CFF1FB0
:10268000CA9FFF1F4C9CFF1FF49DFF1F509CFF1F04
:102690000000C2420000A041D09FFF1F299EFF1FE3
:1026A00070B5194B194A1A4904461A4802F034FA0F
:1026B00000B970BD184A136801331360FFF7CCFCF2
:1026C000FFF760FC154B1B78D3B9FFF73DFBFFF715
:1026D000D9FEFFF78BFF124A124B12781B780C4978
:1026E000114C124E124D013A013B31F8120031F8F3
:1026F000131024F81200308024F81310298070BDC4
:102700002046FFF79FFBE0E7589CFF1F299EFF1F15
:10271000D89FFF1FF89FFF1FEC9DFF1F4C9CFF1FC2
:102720002A9EFF1F2B9EFF1F089EFF1FC89FFF1F93
:10273000569CFF1F10B5064C0649204602F0FAF8D9
:102740002046054A0549BDE810400DF059BA00BFC2
:10275000F89FFF1F688FFF1FFC87FF1F094A0000BB
:10276000036D0BB101207047406D003018BF012090
:10277000704700BF10B50446806D18B10EF0FEFB27
:102780000023A365236D2BB104F11800BDE81040B0
:1027900008F03ABE636D002BF6D110BDF0B50023F2
:1027A00095B01A460546183104A84FF47A74224FA2
:1027B0008DF804308DF80C30129313930294009727
:1027C00008F076FE129B002B2BD05C200BF01CFF38
:1027D00004461A4B9DF80400029A1949236000260A
:1027E0009DF80C302073A160226104A9237504F1C7
:1027F0001800666008F0DAFD6368124AA7600133CA
:102800004FF47A71A6652E712E732C616360A960F6
:102810002A600D4B009304A808F0F6FD284615B079
:10282000F0BD139B002BD0D1064A2B71AC602B73EB
:102830002B612A60EDE700BF60540100B054010035
:1028400018540100845401003C540100836C13B1FE
:10285000184607F055B8C06C08B104F08DBE4FF0B3
:10286000FF30704700B5836C83B063B11846012216
:102870000DF1070106F074FF01280CD19DF8070047
:1028800003B05DF804FBC06C28B101220DF1070113
:1028900004F09EFDF0E74FF0FF30F1E7036D13B158
:1028A000184607F061BA406D08B105F0CBBA704721
:1028B000F0B5036D83B00C462BB318460DF106023C
:1028C00001A906F0B1FDD8B1BDF80430BDF806206D
:1028D00003B9AAB102F01F06C3F343155912C2F39C
:1028E00045177600013D01F5EA6103F01F03D2129E
:1028F00026706571A17123716770A27003B0F0BD7D
:10290000002003B0F0BD406D0028F9D00DF10602A3
:1029100001A904F0EDFCD6E7036D9BB11A7812F023
:10292000700F00D1704710B504460021184607F01B
:1029300009F9606D28B100220023BDE8104004F0C1
:1029400033BE10BD406D0028ECD090F8313013F04C
:10295000500FE7D00022002304F026BE38B5846D66
:102960000CB1204638BD05464FF480700EF0FEFADB
:102970000146A86580B1286D0C7028B14FF48072B3
:1029800008F04CFBAC6DECE7686D40B14FF4807221
:1029900006F088F9AC6DE4E7024CAC65E1E70C4663
:1029A000DFE700BFD5A2FF1F8A79A2F150031B0603
:1029B00020D4F0B54B79046D0D798E784F78097875
:1029C000013385B002F26C72DBB244B103918DE841
:1029D000E0002046022107F0CDF905B0F0BD406DC2
:1029E0000028FAD003918DE8E000022105F096FB63
:1029F00005B0F0BD00207047D0B5046D8CB1012B3F
:102A000008BF002A01D30020D0BD1146204607F0A0
:102A100099F80028F7D0204607F014FA0028F2D0E1
:102A2000D0BD446D002CEED0204604F0BDFD002842
:102A3000E9D02046BDE8D04005F01EBCF0B5036DDE
:102A400083B00C462BB318460DF1060201A906F01F
:102A5000FBFCD8B1BDF80430BDF8062003B9AAB11B
:102A600002F01F06C3F343155912C2F3451776004F
:102A7000013D01F5EA6103F01F03D2122670657172
:102A8000A17123716770A27003B0F0BD002003B084
:102A9000F0BD406D0028F9D00DF1060201A904F047
:102AA00037FCD6E7036D13B1D86900217047436D39
:102AB00013B118695969704718461946704700BF25
:102AC000036D13B1586900217047436D13B193E84A
:102AD0000300704718461946704700BF036D13B1D5
:102AE000184606F03DBE406D08B104F071BC4FF0D1
:102AF000FF307047036D13B1184606F001BF406DFB
:102B000008B104F039BD4FF0FF307047036D33B1A9
:102B10001B7813F0700F14BF012000207047406D28
:102B200030B190F8313013F0500F14BF0120002065
:102B3000704700BF8A79A2F150031B0620D4F0B57C
:102B40004B79046D0D798E784F780978013385B013
:102B500002F26C72DBB244B103918DE8E0002046D2
:102B6000042107F007F905B0F0BD406D0028FAD048
:102B700003918DE8E000042105F0D0FA05B0F0BD26
:102B800000207047006970B30368184A1B699342BC
:102B90000ED1026D6AB1137803F0080303F0FF0051
:102BA0000BB3D3695069181A48BF6FF000407047E3
:102BB0001847416DC1B191F8313003F0080303F0BB
:102BC000FF0083B1D1E90423D1E90001101A30B428
:102BD00063EB010100256FF000448D4208BF844281
:102BE00000D2204630BC704708467047F52D0000E3
:102BF000836C13B1184607F0B7B8C06C08B105F084
:102C000021B9704710B5036982B08DF80710BBB1C8
:102C10001968104ACC68944215D1186D30B1012260
:102C20000DF1070107F04AF902B010BD586D0028F8
:102C3000FAD001220DF1070105F08EFB02B010BDA4
:102C4000184602B010BD184601220DF10701A04739
:102C500002B010BDF12C0000036973B11A68084975
:102C600052698A4207D1186D08B106F049BE586D05
:102C700018B104F081BC184610474FF0FF30704780
:102C8000F52A0000036923B310B51968124A8C684D
:102C9000944282B014D1186D48B101220DF10701A0
:102CA00006F05EFD90B19DF8070002B010BD586DB2
:102CB0000028F8D001220DF1070104F089FBF1E7AB
:102CC000184601220DF10701A047EBE74FF0FF3056
:102CD000EBE74FF0FF307047DD2A0000836C13B143
:102CE000184607F0EBB8C06C08B105F035BB70476B
:102CF000036D13B1184607F0E1B8406D08B105F057
:102D00002BBB704700B5836C83B08DF8071043B1BF
:102D1000184601220DF1070107F0D0F803B05DF865
:102D200004FBC06C0028F9D001220DF1070105F069
:102D300013FB03B05DF804FB03697BB110B41C689E
:102D40000B48E46884420ED1186D10B110BC07F036
:102D5000B5B8586D20B110BC05F0FEBA0020704720
:102D6000002010BC70471846234610BC184700BF0F
:102D7000F12C0000036963B11A68074992698A421D
:102D800008D1186D08B106F0EFBF586D08B105F015
:102D900059B87047184610479D280000826C62B1F0
:102DA000137803F0080303F0FF0003B3D3695069FD
:102DB000181A48BF6FF000407047C16CC1B191F85C
:102DC000313003F0080303F0FF0083B1D1E904239D
:102DD000D1E90001101A30B463EB010100256FF056
:102DE00000448D4208BF844200D2204630BC704768
:102DF00008467047026D62B1137803F0080303F0D0
:102E0000FF0003B3D3695069181A48BF6FF0004040
:102E10007047416DC1B191F8313003F0080303F000
:102E2000FF0083B1D1E90423D1E90001101A30B4C5
:102E300063EB010100256FF000448D4208BF84421E
:102E400000D2204630BC704708467047D0B4039C7F
:102E500016461F4634B1012C1ED0022C0DD0002086
:102E6000D0BC7047046DDCB1012B08BF002AF6D23C
:102E700020461146D0BC06F065BE036DB3B1DA69D9
:102E8000B61847F10007012F08BF002EE7D23146E0
:102E90001846D0BC06F056BE036D8BB15A69EFE7F9
:102EA000406D0028DBD0D0BC04F07EBB406D002814
:102EB000D5D0D0E9042392197B41D0BC04F074BB77
:102EC000406D0028CBD0D0E9002392197B41EAE77E
:102ED00038B50446806D0C4B236018B10EF04EF8E7
:102EE0000023A365236D04F118054BB1284608F0B3
:102EF0008BFA064BA360284608F086FA204638BDB8
:102F0000636D002BF2D1F4E7B05401003C54010092
:102F100038B50446806D0E4B236018B10EF02EF8C4
:102F20000023A365236D04F118056BB1284608F052
:102F30006BFA084BA360284608F066FA20465C212D
:102F40000BF064FB204638BD636D002BEED1F0E73B
:102F5000B05401003C54010070B50469244B036077
:102F600005461CB16668013E66600EB1284670BD1C
:102F70002368204ADB6A93422CD1A06D10B10DF07A
:102F8000FDFFA665236D5BB304F1180008F03CFA61
:102F90002C69002CEAD02368174A5B6893421CD145
:102FA000A06D164B236018B10DF0E8FF0023A36558
:102FB000236D04F11806BBB1304608F025FA104B1A
:102FC000A360304608F020FA20465C210BF01EFB7F
:102FD000284670BD20469847DAE720469847C5E75F
:102FE000636D002BD0D1D3E7636D002BE4D1E6E70E
:102FF0008454010075270000112F0000B054010017
:103000003C54010070B50569284B036004461DB1AE
:103010006E68013E6E602EB1204614210BF0F6FA68
:10302000204670BD2B68224ADB6A934230D1A86DDE
:1030300010B10DF0A3FFAE652B6D7BB305F1180049
:1030400008F0E2F92569002DE6D02B68194A5B6883
:10305000934220D1A86D184B2B6018B10DF08EFF54
:103060000023AB652B6D05F11806DBB1304608F087
:10307000CBF9124BAB60304608F0C6F928465C210C
:103080000BF0C4FA204614210BF0C0FA204670BDA4
:1030900028469847D6E728469847BDE76B6D002B32
:1030A000CCD1CFE76B6D002BE0D1E2E78454010077
:1030B00075270000112F0000B05401003C5401009E
:1030C00070B50D4C20698AB060B103680B4A1B6B68
:1030D000934240F02382036D002B00F01A82084BCC
:1030E0001B789BB9192107480AF08AFF06480BF0A4
:1030F000CBFA0AB070BD00BF388BFF1F61270000FC
:10310000D8A2FF1F0C550100A48FFF1FA949AA4D8B
:1031100006A80BF015FD03F0B7FDA8490246684666
:103120000EF048FD03F0A0FDA449024601A80EF0F0
:1031300041FD03F069FDA149024602A80EF03AFDE7
:1031400003F072FD9D49024603A80EF033FD03F023
:103150007BFD9A49024604A80EF02CFD03F0A4FD65
:10316000014606A80BF07CFD954906A80BF06AFD08
:10317000694606A80BF066FD914906A80BF062FDB2
:1031800001A906A80BF05EFD8E4906A80BF05AFDBA
:1031900002A906A80BF056FD8B4906A80BF052FDBC
:1031A00003A906A80BF04EFD874906A80BF04AFDBF
:1031B00004A906A80BF046FD844906A80BF042FDC1
:1031C000834B1B680593059906A80BF05DFD7D49AF
:1031D00006A80BF037FD7F4B06A819680BF054FDCD
:1031E000784906A80BF02EFD7B4B06A819680BF05A
:1031F0004BFD744906A80BF025FD784B06A81978FD
:103200000BF02EFD6F4906A80BF01CFD744B06A8B1
:1032100019680BF039FD6B4906A80BF013FD714BD3
:1032200006A819680BF030FD664906A80BF00AFDE8
:103230006D4B06A819680BF027FD624906A80BF034
:1032400001FD6A4B06A819880BF00AFD5D4906A826
:103250000BF0F8FC664B06A893F900100BF000FD8C
:10326000584906A80BF0EEFC624B06A819880BF033
:10327000F7FC544906A80BF0E5FC5F4B06A819685B
:103280000BF002FD4F4906A80BF0DCFC5B4B06A8D7
:1032900019680BF00DFD4B4906A80BF0D3FC584BF9
:1032A00006A819880BF0DCFC464906A80BF0CAFCFE
:1032B000544B06A819880BF0D3FC424906A80BF022
:1032C000C1FC514B06A819680BF0F2FC3D4906A859
:1032D0000BF0B8FC4D4B06A819680BF0E9FC394916
:1032E00006A80BF0AFFC4A4B06A819680BF0E0FCEF
:1032F000344906A80BF0A6FC464B06A819680BF04B
:10330000D7FC304906A80BF09DFC434B06A8196872
:103310000BF0CEFC2B4906A80BF094FC3F4B06A803
:1033200019680BF0C5FC274906A80BF08BFC3C4B39
:1033300006A819680BF0BCFC696828680DF01CF938
:103340002049064606A80BF07DFC314606A80BF086
:10335000AFFC1C4906A80BF075FC296806A80BF009
:10336000A7FC184906A80BF06DFC696806A80BF0CD
:103370009FFC144906A80BF065FC2A4B06A81968A7
:103380000BF096FC0F4906A80BF05CFC264B06A838
:1033900019680BF08DFC0B4906A80BF053FC234B6E
:1033A00006A819680BF084FC064906A80BF04AFC35
:1033B0003EE000BF8073010010A3FF1F40520100D8
:1033C0000455010008550100F8530100D0510100D7
:1033D000E0A8FF1F0488FF1F509AFF1F449CFF1F97
:1033E000349CFF1F309CFF1FEC9DFF1F549CFF1F50
:1033F000F49DFF1FCA9FFF1FD09FFF1F509CFF1F00
:10340000C89FFF1F569CFF1FFC9BFF1FD49BFF1FE5
:10341000149CFF1F38A3FF1F089CFF1F0C9CFF1F5D
:10342000D89BFF1FF09BFF1F44A3FF1F34A3FF1F68
:103430003E4B06A819680BF03BFC3D4906A80BF073
:1034400001FC3C4B06A819680BF00AFC384906A899
:103450000BF0F8FB384B06A819680BF001FC344957
:1034600006A80BF0EFFB354B06A819680BF0F8FB2C
:103470002F4906A80BF0E6FB314B06A819680BF0A4
:10348000EFFB2B4906A80BF0DDFB2E4B06A81968B5
:103490000BF0E6FB264906A80BF0D4FB2A4B06A846
:1034A00019680BF0DDFB224906A80BF0CBFB274B7C
:1034B00006A819680BF0D4FB1D4906A80BF0C2FB47
:1034C000234B06A819780BF0CBFB06A921480BF07B
:1034D000B5F820480BF0D8F806A91F480BF0AEF855
:1034E0001D480BF0D1F8236943B11A681B49926952
:1034F0008A4218D1186D30B106F036FC06A80BF0E0
:10350000DFFA0AB070BD586D0028F7D004F09AFCBD
:10351000F4E7436D002B7FF4E2ADE3E59847002824
:103520003FF4E0ADDBE518469047E7E748A3FF1F0F
:1035300008550100C49AFF1FC89AFF1FCC9AFF1FAD
:10354000049BFF1FE89AFF1FEC9AFF1F0C9BFF1FB5
:10355000F09AFF1FA48FFF1F388BFF1F9D280000CC
:1035600010B5294C206984B0E8B10368274A1B6B69
:10357000934215D1036D002B39D0254968460BF0D5
:10358000DFFA694623480BF059F822480BF07CF823
:10359000214B1B7883B168460BF092FA04B010BD42
:1035A00098470028E9D119211C480AF029FD19483B
:1035B0000BF06AF804B010BD694613480BF03EF8F2
:1035C00011480BF061F8192115480AF019FD11484E
:1035D0000BF05AF82369002BDDD01A681149926963
:1035E0008A420ED1186D30B106F0BEFBD3E7436DB1
:1035F000002BC2D1D7E7586D0028CCD004F022FCB4
:10360000C9E718469047C6E7388BFF1F61270000BF
:1036100028550100A48FFF1FD7A2FF1F0C550100E2
:10362000E45501009D2800002DE9F0416420A4B07C
:10363000A34C09F08DF90E23A24A204619461370B7
:1036400001F0C8FD002800F09A809F4B9F4A93E844
:103650000300012313708DF81810059003F024FB6C
:103660009B49024607A80EF0A5FA03F00DFB994905
:10367000024603A80EF09EFA03F0F6FA95490246B8
:1036800004A80EF097FA07A909A80EF0B9FA03A941
:103690000EF0B6FA04A90EF0D7FA09AA0CA805ABE9
:1036A0008D490EF087FAD4F88454002D57D00024A9
:1036B00010AE2946234630460CAA8DF840408DF8BE
:1036C00041408DF8424006F021F8844B844918703F
:1036D0000CAA44F20223304607F080FF229B002B05
:1036E00000F0C2805C200AF08FFF04469DF8441071
:1036F000129A9DF84C307B487B4E20600025217348
:10370000A66014A922612375656004F1180007F012
:103710004DFE6368754AA56501336360744F754E4D
:10372000A26014A8109707F06FFE63683569013333
:103730006360002D00F096806B68013B6B6073B393
:10374000346124B163685D1E6560002D5BD001208B
:1037500009F0FEF8FFF704FF24B0BDE8F081D4F8CB
:103760008814C9B110AE2B4630460CAA8DF87150A2
:103770008DF872508DF8735004F0D8F9A5E705461E
:103780001E215D480AF03CFC5C480AF07DFF4F4B6F
:103790001D7024B0BDE8F081084610AE95E72A6898
:1037A0005749D26A01938A426ED1A86D18B10DF0C3
:1037B000E5FB019BAB652B6D002B71D005F118006B
:1037C00007F022FE3569002DBAD02B684D4A5B68A0
:1037D00093425FD1A86D434B2B6018B10DF0CEFB27
:1037E0000023AB652B6D05F11808002B60D0404617
:1037F00007F00AFEAF60404607F006FE28465C214F
:103800000AF004FF9CE723683D4ADB6A93423ED1FD
:10381000A06D10B10DF0B2FBA565236D002B43D058
:1038200004F1180007F0F0FD2368364A5B68934204
:1038300033D1A06D2B4B236018B10DF09FFB0023FB
:10384000A365236D04F11805002B35D0284607F039
:10385000DBFDA760284607F0D7FD20465C210AF073
:10386000D5FE74E734616EE7239C002C7FF43AAFF9
:10387000204E1F4F109714A807F0C6FD3569002D84
:103880007FF45AAF356162E7284690479AE72046B1
:103890009847C9E72846984752E72046984756E791
:1038A0006B6D002B8AD18DE7636D002BB8D1BBE720
:1038B0006B6D002B9BD19DE7636D002BC6D1C8E7D4
:1038C00064A3FF1FD6A2FF1F28560100D8A2FF1F26
:1038D000385201004052010020560100D7A2FF1FBC
:1038E00068A3FF1FB0540100185401006054010088
:1038F0003C540100388BFF1F00560100A48FFF1FAE
:1039000075270000112F0000024A034903480CF0FC
:1039100077B900BFFC87FF1F592F0000388BFF1FAE
:1039200038B51F282CD8DFE810F02C003D004A00E5
:103930005B0068007600830090009F00AE00BE0030
:10394000D7002B002B002B002B002B002B002B0073
:103950002B002B002B002B002B002B00E500F3008D
:1039600001010F011D012B0120008C4BD3F81C21FC
:1039700032B140F2E7310122C3F81C1183F83F2134
:1039800038BD8749854A0B68D2F8A0009842F7D025
:10399000622BF5D001246220C2F8A03082F82041C9
:1039A000086038BD7F4A7D4B1268D3F8A41091425D
:1039B000E6D00121C3F8A42083F8211138BD7A4B49
:1039C0007A491B68754AA1FB0313D2F8A8109B091A
:1039D0008B42D5D00121C2F8A83082F8221138BD1F
:1039E000734A6E4B1288D3F8AC108A42C8D00121BA
:1039F000C3F8AC2083F8231138BD6E4A674B92F9A7
:103A00000020D3F8B0108A42BAD00121C3F8B02008
:103A100083F8241138BD684A604B1268D3F8B4109B
:103A20009142ADD00121C3F8B42083F8251138BDEF
:103A3000624A5A4B1268D3F8B8109142A0D00121C3
:103A4000C3F8B82083F8261138BD5D4B18680DF017
:103A50009DF8524BD3F8BC20904291D00122C3F87C
:103A6000BC0083F8272138BD564B18680DF08EF83E
:103A70004A4BD3F8C020904282D00122C3F8C00044
:103A800083F8282138BD504B18680DF07FF8434B60
:103A9000D3F8C42090423FF473AF0122C3F8C400AE
:103AA00083F8292138BD494B3C4C1D68D4F8C80027
:103AB0000CF012FE29460CF0FBFF00287FF460AFEB
:103AC000434928460CF060FE0DF03AF80123C4F893
:103AD000C80084F82A3138BD304BD3F8CC20002AF6
:103AE0003FF44EAF40F2E7310122C3F8CC1083F827
:103AF0002B2138BD294BD3F80421002A3FF440AFD5
:103B000040F2E7310122C3F8041183F8392138BDAE
:103B1000224BD3F80821002A3FF432AF40F2E731BC
:103B20000122C3F8081183F83A2138BD1B4BD3F8A2
:103B30000C21002A3FF424AF40F2E7310122C3F800
:103B40000C1183F83B2138BD144BD3F81021002A07
:103B50003FF416AF40F2E7310122C3F8101183F8A9
:103B60003C2138BD0D4BD3F81421002A3FF408AF97
:103B700040F2E7310122C3F8141183F83D2138BD2A
:103B8000064BD3F81821002A3FF4FAAE40F2E73191
:103B90000122C3F8181183F83E2138BD4C8BFF1F5A
:103BA0000488FF1F509AFF1FEC9DFF1FD34D62102A
:103BB000CA9FFF1FF49DFF1F349CFF1F309CFF1FF7
:103BC00044A3FF1F34A3FF1F48A3FF1F0C9CFF1F2C
:103BD0000000C84208B5094B094A1A6040F6055072
:103BE00008F076FF302008F0E9FF064B064A074947
:103BF0001960937843F0A003937008BD08A3FF1FDA
:103C00007C8FFF1F04A3FF1F00B0064006B00640D4
:103C10007E2810B51BD07D2804460AD009F048F94B
:103C2000124B1888204400EB102000F0FF00188091
:103C300010BD09F03DF95D2009F03AF90B4A1388EF
:103C40007D3303EB132303F0FF03138010BD7D20AE
:103C500009F02EF95E2009F02BF9044A13887E330F
:103C600003EB132303F0FF03138010BD02A3FF1F18
:103C70002DE9F0413B4F3C4D3A68DFF808810023C5
:103C80002B80137843F02003137098F8003084B031
:103C900063B93648364902680192019A0468086897
:103CA0000094344C121A0098226008603249C818F7
:103CB00090F820211AB990F84041052C40D903F121
:103CC000080003F1280251F8200051F822208DF855
:103CD00009000B440026C2F30724C2F30741000A7F
:103CE0008DF80B2083F82061C2F3076210238DF852
:103CF0000A008DF80C408DF80D108DF80E208DF80F
:103D000008300DF107040DF10F062B78DB438DF819
:103D10000F3014F8010FFFF77BFFA642F5D11749CA
:103D2000174B98F8002008681A700368DB689847FA
:103D30003A68137803F0DF03137004B0BDE8F08134
:103D4000013480F840418DF808208DF809208DF865
:103D50000A208DF80B208DF80C208DF80D208DF8A1
:103D60000E20CEE704A3FF1F02A3FF1FE0A8FF1F42
:103D7000DCA2FF1FE0A2FF1F4C8BFF1F08A3FF1F49
:103D8000AC8CFF1F28A3FF1F2DE9F04786B004ADC0
:103D900000236B60049301932E4606AF741BE4B2BC
:103DA00009F0ACF940B9072CFAD99DF81030102B66
:103DB0000CD006B0BDE8F08709F0B4F906F8010BA5
:103DC0009DF81030102BF4D1BE42E7D19DF8113090
:103DD000002BEED19DF81230032BEAD19DF815206F
:103DE0009DF816309DF814108DF805208DF80630DA
:103DF0008DF80410019D9DF81340364E364FC5F3E3
:103E00000B000CF069FC04F00F0434490CF070FD59
:103E100056F8248047F82400414682460CF0AAFB5D
:103E2000002181460CF06CFE00284CD048462C49FD
:103E30000CF066FE002838D14FF07A5148460CF05D
:103E4000A3FC41460CF098FB46F824002D0BC5F36B
:103E50000B0001950CF040FC20490CF049FD0134A9
:103E6000E5B247F8240057F8258056F8254040462B
:103E700021460CF07FFB002107460CF041FE28B3E1
:103E8000384617490CF03CFE90B146F8258015499C
:103E9000154A0B680393039B106809680291134944
:103EA000029C14601B1A0B6083E746F824A0CDE740
:103EB0004FF07A5138460CF067FC21460CF05CFB61
:103EC00046F82500E3E709F10040B0E707F10040BC
:103ED000D7E700BFE4A2FF1F10A3FF1F0000FA43B3
:103EE0009A99993EE0A8FF1F0CA3FF1FFCA2FF1F99
:103EF000F0B57E2883B01F4B25D0197809B3002276
:103F0000A1281A7023D0F2281BD11B4B1B4F187805
:103F10001B4E0130C0B2202892BF38703A70104654
:103F20003D78002404E0D0B2202805460C461BD87A
:103F3000335C421C002BF6D0D4B9FFF7F1FCFFF73D
:103F400097FE03B0F0BD01221A7003B0F0BD0D4B17
:103F50000D4A1B680193019B12689B1AB3F52A7FD7
:103F6000EFD9FFF711FFECE71D4618460C46DFE7D7
:103F70003D70E2E700A3FF1FAC8CFF1F28A3FF1FCB
:103F80004C8BFF1FE0A8FF1F0CA3FF1F08B504E028
:103F900009F0C8F8C0B2FFF7ABFF09F0AFF800288E
:103FA000F6D108BD064B07491A6882B00092009806
:103FB0001B680193019A044B08601A6002B07047B5
:103FC000E0A8FF1FDCA2FF1F0CA3FF1F08B5002104
:103FD0001B2008F095FC00211A2008F091FC00211C
:103FE0001C2008F08DFC00211F20BDE8084008F0CF
:103FF00087BC00BF2DE9F04F1B2083B008F044FAC6
:104000000CF06EFB6F49704E704D714CDFF8F4A1EF
:10401000704F0CF0B9FB4FF066510CF0B5FB6E49D8
:104020000CF0B2FB6D490CF0A5FA31680CF0A4FA63
:1040300030601A2008F028FA0CF052FB61490CF0AD
:10404000A3FB4FF066510CF09FFB63490CF09CFB07
:1040500063490CF08FFA29680CF08EFA28601C2056
:1040600008F012FA0CF03CFB56490CF08DFB4FF0B7
:1040700066510CF089FB58490CF086FB59490CF04D
:104080007BFA21680CF078FA20601F2008F0FCF918
:104090000CF026FB4B490CF077FB4FF066510CF00F
:1040A00073FB4D490CF070FB00210CF065FADAF857
:1040B00000100CF061FA02463878CAF8002001308E
:1040C000C0B232280192387078D90CF009FB8346CF
:1040D000014630680CF00CFC434B81465946C3F84E
:1040E000009028680CF004FC404B80465946C3F809
:1040F000008020680CF0FCFB019A3D4B0090864646
:1041000059461046C3F800E00CF0F2FB394B3A492F
:10411000834600224846C3F800B03A700CF0C8FC51
:1041200020B1314B4FF00009C3F8009033494046AD
:104130000CF0BEFC20B12D4B4FF00008C3F80080FE
:10414000284900980CF0B4FC18B1294B00271F60D7
:10415000009700235846194601930CF0A9FC18B1AA
:10416000019B244A9B461360484625494FF00009AD
:10417000C6F80090C5F80090C4F80090CAF8009006
:104180000CF0BEFC10B1184BC3F8009040461C491F
:104190000CF0B6FC10B1154A0023136000981849C2
:1041A0000CF0AEFC10B1124A0023136058461449BB
:1041B0000CF0A6FC10B10E4A0023136003B0BDE85A
:1041C000F08F00BF3333534030A3FF1F2CA3FF1FDA
:1041D0003CA3FF1F29A3FF1F0000C8428FC2F53E6A
:1041E000B81E053E85EBD13E44A3FF1F34A3FF1F3D
:1041F00048A3FF1F38A3FF1F8FC2F5BEB81E05BE20
:104200000000484340A3FF1F90F8612090F8600031
:10421000101A704790F8603090F861209A4205D9E2
:104220005A1C034480F86020187E70474FF0FF301E
:10423000704700BF90F8603090F861209A4286BFC6
:104240001B18187E4FF0FF30704700BF704700BF4B
:1042500038B50546B0F8AE0090B195F8AD301446CB
:10426000C3F1490294420CD805F163001844224678
:1042700007F0CAFE95F8AD30234485F8AD302046EE
:1042800038BD012014462871EEE700BFB0F8AE300B
:104290006BB190F8AD30482B07D8C218013380F8C5
:1042A000AD30012082F863107047012303710020B4
:1042B000704700BF0023426980F8603080F86130A9
:1042C00080F8AC3080F8AD3080F8AE3080F8AF3098
:1042D00006CA30B40D680469C0F8B4302A43C0F887
:1042E000B8300A60A370426990F8B130164914687A
:1042F00013441D7A5B7B01EBC5051B026D6803F45B
:10430000E06343F064032B6090F8B23013449D7C6B
:10431000DB7D01EBC5011B02496803F4E06343F058
:1043200064030B6021685368194205D00369272292
:104330005A70036904229A71036920225A71036931
:1043400080229A7030BC70470474010010B5026975
:10435000D378DBB2D90604463ED510215806D17079
:1043600039D503F0040303F0FF02002B52D03E497D
:10437000D4F8B42000230B7084F8AD30002A5BD051
:10438000904794F8AD30002B56D02369D0229A7014
:10439000236994F863201A712369012284F8AC2000
:1043A0000222DA7010BD314B84F8B0009C424AD032
:1043B0002F4B9C4252D094F8611013794729DBB2FD
:1043C00007D82948007820B16018013184F86110BD
:1043D00003760223D37010BD5906C2D4917801F040
:1043E000100101F0FF000029DDD013F001031ED100
:1043F00094F8AC1094F8AD00884281BF4B1C0919A9
:1044000084F8AC3091F8633013712369D0229A702C
:104410002269DEE7236984F86120C0229A7023694B
:10442000114A1979012111700222DA7010BDC023DE
:10443000937022691379CCE70122002384F8AD2020
:1044400084F86330A1E7626994F8B13009491344F4
:104450000322187A08F066F92269ACE7626994F8D9
:10446000B1300549F3E700BF4CA3FF1FB08CFF1F1D
:104470006C8DFF1FDD440000E94400000369DB7818
:1044800003F0200373B190F8B0300133DBB2012B9D
:1044900080F8B0301BD9426990F8B1301344187AD3
:1044A00008F0BCB970B5426903F0FF0590F8B1306F
:1044B00013440446187A08F0B1F9D4F8B8305BB167
:1044C00084F8605094F86100BDE87040184790F897
:1044D000AF30002BDFD0704770BD00BF0148FFF741
:1044E000CDBF00BFB08CFF1F0148FFF7C7BF00BFA3
:1044F0006C8DFF1F2DE9F047374FDFF8E0903B68E8
:10450000026982B006460093DDF800800021A025F4
:10451000D3789B065BD53B680193019BC8EB0303F3
:104520000F2BF5D949B1102BF2D0002090703369D0
:1045300080229A7002B0BDE8F087726996F8B130B7
:1045400013440521187A08F0DBF9726996F8B13046
:104550001344012193F812A0504608F0D1F9092420
:104560000021504608F0B8F92B46013BFDD101214E
:10457000504608F0B1F92B46013BFDD1013CEFD18B
:10458000706996F8B11001444FF4A0720C7A4B7B1D
:1045900009EBC4011B02496803F4E06343F06403C0
:1045A0000B6096F8B2300344997CDB7D09EBC101C6
:1045B0001B02496803F4E06343F064030B60013AB3
:1045C000FDD13269D3789B064FF00101A3D40120BD
:1045D00002B0BDE8F08700BFE0A8FF1F047401002F
:1045E000F0B503691222DA700269937803F02003B0
:1045F00085B004460D46002B5ED0B42393703C4931
:1046000022690B680093009E05E00B680193019BF3
:104610009B1B042B42D8D37803F0200303F0FF0048
:10462000002BF2D094F8AD30002B31D04FF0000EBB
:104630004FF0020C04EB0E0393F8633013710B6818
:104640000393039F206907E09B060DD50B68029337
:10465000029BDB1B052B28D8C378DBB203F00202D8
:1046600002F0FF06002AEFD080F803C02669F37835
:10467000DBB2DF0632462DD49F062BD5DB0731D4C3
:104680000EF1010E94F8AD305FFA8EFE7345D1D86D
:1046900000201DBB002384F8AE3004E09070236935
:1046A00080229A70042005B0F0BD867023698022B4
:1046B00004209A7005B0F0BD03F0FF06FFF71AFF63
:1046C00010B9042005B0F0BD236984F8AF60B022B2
:1046D0009A7094E78023B3700420DAE72669802378
:1046E000B370D7E7BEF1000F0CBF02200320F6E73E
:1046F000E0A8FF1F2DE9F04106690025122780F888
:10470000605080F86150F770D0F810C09CF802E05B
:104710000EF0200E88B00446884615461E46BEF1AF
:10472000000F49D0B4238CF80230784B21691A6805
:104730000092DDF800E006E01A6801920198CEEBE5
:104740000000042830D8C87800F0200000F0FF07EF
:104750000028F1D04FEA480242F00102D2B20A71B9
:104760001A680292DDF808E0206906E01A680392F0
:104770000399CEEB010105292AD8C17801F0020185
:1047800001F0FF070029F1D04FF0020C80F803C0C0
:104790002269D17811F0110722D12DBB002E0CBF58
:1047A000A0238023937003E08F70236980229A7086
:1047B000384608B0BDE8F0810EF0FF07FFF79AFE1B
:1047C0000028F5D0236984F8AF70B0229A70ACE766
:1047D00087702369802238469A7008B0BDE8F0815E
:1047E000802393700027E3E7012D75D0A0219170FD
:1047F00021690A79BE4667464FF0A80C1A680492F0
:10480000049805E01A680592059A121A052A4AD8F2
:10481000CA7802F0020202F0FF08002AF2D0CF703C
:104820002169CA78D2B212F0100F08465AD1920606
:1048300058D5013DEDB2012D49D0BEF1470F3BD90E
:104840000A79012DDAD11A680692069D05E01A68E8
:104850000792079A521B052A46D8C27802F0020234
:1048600002F0FF01002AF2D00223C3702269D3783C
:10487000DBB2D9063AD49B0634D5B023BEF1470F3C
:1048800093703FD8226904EB0E0312791A760EF169
:10489000010E5FFA8EFE16B1236980229A7084F8A9
:1048A00061E0774684E781F80280236980229A706C
:1048B000774684F861E07BE704EB0E0291F8048010
:1048C00082F818800EF1010E5FFA8EFEB9E781F8CA
:1048D00002C021690846B0E7A82191702069BE4650
:1048E0000279B0E7774663E78170DEE71021A02305
:1048F000D170013BFDD12269937803F0F70377462D
:10490000937055E723691B79C5E700BFE0A8FF1F37
:104910000148FFF71BBD00BFB08CFF1F0148FFF728
:1049200015BD00BF6C8DFF1F10B5044609F01AFEBF
:10493000204610BDF0B541F658320F24DFF830E0C4
:10494000C0F8381108270021AC2640F213758260A8
:104950000422C0F800E080F828704685858504713F
:10496000C47141714173827180F82720F0BD00BF8E
:10497000A08601002DE9F84FB0F82A900024804667
:104980000473054648460BF0A7FE35F82C7F824697
:1049900038460BF0A1FE51460BF0ECFD0146834674
:1049A0004FF080400BF0A4FF4FF07C510646584674
:1049B0000BF0EAFE51460BF0DFFD314600F10040FE
:1049C0000BF0E2FE234608F16C0108F14C0408F1FB
:1049D000AC020233202B25F8029F24F8027F41F815
:1049E000046F42F8040FF4D1D8F83801D8F8001059
:1049F000036836221B6A9847024BD8F838211A60A0
:104A0000BDE8F88F60A3FF1F38B5D0F8F030054639
:104A100063B100241859043418B10CF0AFFAD5F87A
:104A2000F030402CF6D118460CF0A8FAD5F8F43046
:104A300063B100241859043418B10CF09FFAD5F86A
:104A4000F430402CF6D118460CF098FA284638BDC0
:104A5000F8B52F4E3368DB07044647D52D4D07F0D8
:104A600055FF2B68A268C01A82423CBF0023237303
:104A700000260127D4F8380103681B6998470028ED
:104A800032DD07F043FFD4F8383128601A68184641
:104A900053699847237BC0B2A0738BB923798342B3
:104AA00002D026736073E5E7627B6379934204D09A
:104AB000E379A17913409942F3D127736073D9E761
:104AC000182B04DCE2180133DBB290732373192B2B
:104AD000E8D16379834216D0E379A2791840824203
:104AE00011D000202073F8BD0020F8BD304607F03B
:104AF00091FD0028B2D007F009FF064D286030462E
:104B000007F08EFDABE7002323730120F8BD00BF43
:104B100058A3FF1F5CA3FF1F2DE9F0410D46174668
:104B200098460446FFF794FF002800F0A580002D6A
:104B300000F08E80227CE37B43EA0223C3F30A0366
:104B40002B80637C227C5B0143EAD203C3F30A031C
:104B50006B80A27C637CE17C920042EA931343EA7F
:104B60008123C3F30A03AB80237DE27CDB0143EAAC
:104B70005203C3F30A03EB80637D227D1B0143EAEA
:104B80001213C3F30A032B81A27D637DE17D5200E2
:104B900042EAD31343EA4123C3F30A036B81237E22
:104BA000E27D9B0143EA9203C3F30A03AB81637E78
:104BB000227EDB0043EA5213EB81E27EA37E43EACE
:104BC0000223C3F30A032B82237FE27E5B0143EAC5
:104BD000D203C3F30A036B82217F637FA27F9B0012
:104BE00043EA911141EA8221C1F30A01A982E37FDC
:104BF000A27FDB0143EA5203C3F30A03EB8294F87A
:104C00002030E27F1B0143EA1213C3F30A032B8314
:104C100094F8216094F8201094F82230760046EA47
:104C2000D11141EA4321C1F30A01698394F8233089
:104C300094F822209B0143EA9203C3F30A03AB8357
:104C400094F8243094F82320DB0043EA5213EB83DA
:104C5000B8F1000F08D094F8253094F827201340BD
:104C600018BF012388F8003037B194F8253094F844
:104C70002820134002D13B70BDE8F08101233B7036
:104C8000BDE8F08130B4054B054A06498024002573
:104C90001C711D60184630BC0AF0B2BF50A3FF1F44
:104CA000FC87FF1F29490000704700BF30B583B063
:104CB00005460C4607F0F6FD1C4B984204D800232D
:104CC0002B80238003B030BD694609F015FE9DF8A6
:104CD00006309DF805109DF80420503B9BB27F2BB9
:104CE00005D80131C9B20C2901D81F2A11D90021D8
:104CF0009DF80200298017289DF801209DF80030BA
:104D000003D83B2A01D83B2B09D90023238003B0C9
:104D100030BD42EA411242EA432399B2E8E7520128
:104D200042EAC02242EA53039BB2EFE7FFA5CE124C
:104D3000F0B5012B95B005463AD0022B01F10401E4
:104D400040F20223684618BF002306F047FC129B7E
:104D5000002B36D05C2009F057FC04469DF8046017
:104D60001E481F49029A9DF80C30206004AF26733C
:104D7000A1600026394604F118002261237566609F
:104D800006F014FB63681748174AA66501334FF411
:104D90007A712E712E732C61A0606360A9602A6005
:104DA000124B0093384606F02FFB284615B0F0BD95
:104DB00044F202230431684606F010FC129B002BDB
:104DC000C8D1139B002BC5D14FF47A71064A2B71C1
:104DD0002B732B61A9602A6004AFE1E7B054010096
:104DE0001854010060540100845401003C54010037
:104DF00010B5D0F884448EB0A4B10A466846214666
:104E0000012300248DF800408DF801408DF8024008
:104E100004F07CFC08B90EB010BD684605F0CCFC6F
:104E20000EB010BDD0F888040028F4D00A46012343
:104E3000014668468DF831408DF832408DF8334098
:104E400002F074FE0028E6D0684602F0D7FE0EB0ED
:104E500010BD00BF10B5D0F884448EB07CB10A46B6
:104E6000012304F58961684600248DF800408DF81F
:104E700001408DF8024004F083FB0EB010BDD0F865
:104E800088040028F9D00A46012300F589616846A4
:104E90008DF831408DF832408DF8334003F09CF8A6
:104EA0000EB010BD30B5D0F884448FB074B1002579
:104EB0000A462B46214668468DF800508DF8015071
:104EC0008DF8025004F022FC0FB030BDD0F88804F9
:104ED0000028F9D00A462346014668468DF831403D
:104EE0008DF832408DF8334002F020FE0FB030BD17
:104EF00038B50546D0F88404C0B1C469013C06F059
:104F000093F9D5F88434241A43B198794FF4007397
:104F100003FA00F080B2A0FB040138BDD5F8883454
:104F200063B1D3F83C04A0FB040138BDD5F8880474
:104F300020B1D0F8304404F0B9F8E2E700200021B5
:104F400038BD00BF30B5D0F884448FB0A4B100257F
:104F50000A462B46214668468DF800508DF80150D0
:104F60008DF8025004F0D2FB08B90FB030BD68468E
:104F700004F0BAFD0FB030BDD0F888040028F4D09A
:104F80000A462346014668468DF831408DF8324086
:104F90008DF8334002F0CAFD0028E6D0684602F0E2
:104FA0008BFE0FB030BD00BF70B5D0F884448EB01A
:104FB0001646C4B1002504F589640A462B462146ED
:104FC00068468DF800508DF801508DF8025004F0BD
:104FD0003BFB08B90EB070BD32462146684604F06E
:104FE000C5FC0EB070BDD0F888040028F2D000F5E2
:104FF00089650A462346294668468DF831408DF872
:1050000032408DF8334002F021FD0028E2D03246D4
:105010002946684603F038F80EB070BDD0F88424F5
:105020004AB19179D0694FF400738B409BB201383B
:10503000A3FB00017047D0F8882432B1D2F8303495
:10504000D2F83C04A3FB0001704700200021704708
:105050002DE9F041D0F8904492B04CB11F4623683E
:1050600005469B6920469847B0F5405F064603D841
:10507000002012B0BDE8F0814FF400700BF076FF15
:1050800080460028F4D0B6F1806F07AE3B4621463B
:105090003046424637D805F069FE044640460BF0DC
:1050A0006DFF002CE4D095F8AC44FF2C34D095F87B
:1050B000ADC4D5F8B0E4D5F8B4748DF804408DF8DB
:1050C00005C0CDF808E0039701AB93E8070004ABF7
:1050D00083E807008DF810408DF811C0CDF814E07A
:1050E000069793E8070086E8070005F2944496E8DF
:1050F0000E00204606F088FB95F8A734C5F89044CA
:105100002BB10120B5E703F003FB0446C6E72146B7
:10511000281D06F0FFF9F4E7002385F8AC44C5F834
:1051200090340120A5E700BFF0B50446D0F8900404
:105130008BB088B394F8BC54002D3AD194F8AC6489
:10514000FF2E2DD094F8ADC4D4F8B0E4D4F8B474E4
:105150008DF800608DF801C0CDF804E002979DE85D
:10516000070003AB83E807008DF80C608DF80DC0D5
:10517000CDF810E0059793E8070006AB83E8070039
:1051800004F294460ECB304606F03EFB94F8A7346A
:10519000C4F89064ABB1284684F8BC040BB0F0BDF1
:1051A000284684F8AC64C4F8905484F8BC040BB06E
:1051B000F0BD06AA0A2106F01FFC84F8BC040BB05F
:1051C000F0BD3146201D06F0A5F984F8BC040BB0F3
:1051D000F0BD00BF2DE9F0410E468AB005462048DB
:1051E00001F01EFE212E03D900200AB0BDE8F08197
:1051F00000241C4F8DF804608DF80540039402973D
:1052000001AB93E8070004AB83E807008DF8114079
:10521000059706948DF8106093E8070007AB83E8C4
:10522000070005F294480ECB85F8AC6485F8AD44D0
:10523000C5F8B444C5F8B074404606F0E5FA95F8F0
:10524000A734C5F890842BB1204685F8BC040AB079
:10525000BDE8F0814146281D06F05CF9F5E700BF86
:10526000AD4C000040787D01F0B4114B114D124C53
:105270001D602926FF25C3F89C4400240F4883F8AD
:10528000A764012783F8BD5483F8AA4483F8B8447F
:10529000C3F8940483F8A574C3F88444C3F888441D
:1052A00083F8BC44064A07491846F0BC0AF0A8BC7B
:1052B00064A3FF1F9C56010001100138AC7301006C
:1052C000FC87FF1FA94C000010B4047F4160022C32
:1052D000C26002D010BC08F097BF836810BC1847AA
:1052E0002DE9F0410468E56815F0807F794D25606F
:1052F00052D1DF0740F1B380002900F0E3800D7840
:10530000012B18BF45F000456563013190F82480FA
:1053100003F1FF3C48EA0828BCF1000F00F0A88028
:1053200021B14D7811F8028B45EA082845682E7A9C
:10533000BCF1020F06F1FF364FEA06360CBF48F00B
:10534000805548F01045B6B26563ACF1020C08E038
:105350000AB114700132013B05F47045B54216D90B
:105360000468E56A15F0F00FF6D0A46B13F0010F96
:1053700017464FEA242EEBD11AB107F802EB54700E
:105380003A4605F47045B542A3F10203E8D8BCF1F2
:10539000000F6DD00468C3E7DD074CD5002900F08D
:1053A00089800D78012B18BF45F0004565630131F8
:1053B00003F1FF3E90F824C0BEF1000F41D029B1A7
:1053C00091F801C00D78023145EA0C2C45682E7A1F
:1053D000BEF1020F06F1FF364FEA06360CBF4CF065
:1053E00080554CF01045B6B26563AEF1020E08E090
:1053F0000AB114700132013B05F47045B54215D96C
:105400000468E56A15F0F00FF6D013F0010F1746A7
:10541000A46BEDD122B107F8024B241254703A4626
:1054200005F47045B542A3F10203E9D8BEF1000FBF
:1054300007D00468C3E79E4690F824C0BEF1000F71
:10544000BDD11BB30468E16A11F0F00FFBD0A16B72
:10545000DC071DD50AB111700132013BF1E790F86C
:1054600024809C4648EA0828BCF1000F7FF458AF1E
:1054700063B10468E16A11F0F00FFBD0DE07A16BA5
:105480000FD50AB111700132013BF1E7BDE8F0819F
:105490002AB114460D1204F8021B55702246023B35
:1054A000CFE72AB114460D1204F8025B5170224670
:1054B000023BDDE790F82450012B18BF45F0004572
:1054C000656375E790F82450012B18BF45F000453F
:1054D00065631BE700041F80F0B4464B464A186B17
:1054E000DC6A01791170454922790A709A6A00795B
:1054F0000870002A46D05968C9688A423ED8216897
:10550000CC8B240402F1FF3065D4C0F30E00C883B5
:10551000C88B80B2C882196B0968C88B000452D44A
:10552000C2F30E00C883C88B002480B212F1FF3290
:10553000C88218BF01229C62D96A2E4809680D688A
:1055400000F12404A54236D00068C46814F0804FEE
:105550000C680D6815BF248824780235013544F0A5
:1055600000440D604463196B254B0979197021497A
:1055700012B1CA6A12791A70F0BC7047521A9A6254
:105580000122D9E7586B196805681E4C0A63CC6282
:10559000CC682D681C4E24F080440327B542CC60B3
:1055A00083F825701FD1037F4260022BC2601ED09A
:1055B000F0BC08F029BE016890F82400CC6840F0E7
:1055C00000404863CFE7CC8BC2F3080004F47E446C
:1055D0002043C883A7E7CC8BC0F3080004F47E44C3
:1055E0002043C88394E72B461146F0BC18478368D4
:1055F000F0BC1847288EFF1F1F8000401C80004011
:105600001B80004000000FFFC952000090E80C0012
:10561000F0B41C6859682568164F174E294321605D
:10562000164D17491760D66015611160417A154A09
:105630005C180A3194F8244053F8215002EBC4015D
:1056400049680D60017A5C1803EB8101247ECD6905
:1056500002EBC40149680D60817A581803EB81039D
:1056600090F83000596B02EBC002F0BC536819602F
:10567000704700BF01401F00011000380110007882
:1056800000001F80047401000BB1FFF729BE7047B2
:1056900030B5A1F1280383B00546252B4FD8DFE8AC
:1056A00003F01C2F191947134E4E4E4E4E4E4E4EC0
:1056B0004E4E4E4E4E4E4E4E4E4E4E4E4E4E4E4E0A
:1056C0004E4E4E4E4E4E3535022A8CBF4023A023FF
:1056D000013BFDD1012003B030BD2B35002415F86E
:1056E000013FFF2B4FF00101184605D00F2C84BF5E
:1056F0001846022107F004F90134162CEFD1E9E72E
:10570000104607F025F9012003B030BD01F03F013C
:1057100001920D4442BB012195F82C0007F0F0F8EE
:10572000019A95F82C00114607F0D6F80120D2E72F
:10573000003218BF01225301002ACBD0C8E73F290D
:1057400019D901F03F016B1893F82C00FF28C1D044
:105750000F2917D9102910D007F0C4F8003018BF4E
:10576000012085F82700B5E795F82C00022107F005
:10577000C7F80120AFE70020ADE7019009F0C6FAB5
:105780000198E9E7114607F0A7F80120A3E700BF59
:1057900000F056BE30B49DF808509DF80C4080F8DB
:1057A000365080F8374080F82C1080F82D2080F893
:1057B000353030BC704700BF2DE9F043036890F8E6
:1057C000508093F8119090F8517083B006460025F0
:1057D00002E0994518D933681B7CF06CD90005FBB1
:1057E00001F14FF6F872ECB20A4002443919013463
:1057F00000923046CAB201350021E4B200F068FFE1
:105800007B19A045DBB2E4D803B0BDE8F08300BF4C
:1058100010B5836C80F8511004461B689847A36C40
:1058200020465B68BDE81040184700BF10B590F8EF
:10583000AB30044653B1026890F85030127CC06C13
:1058400012FB03F2D20000210BF058FF204600218A
:10585000BDE81040FFF7DCBF38B50546FFF7ACFFE9
:1058600095F8514095F850302A681C44517CE4B2B8
:10587000A14216D995F8AB1029B928462146FFF761
:10588000C7FF012038BD127CE86C12FB03F2D20086
:1058900000210BF033FF28462146FFF7B9FF012016
:1058A00038BD284600F040FF002038BD10B5044642
:1058B000FFF7BCFF2046FFF7CFFF0028FAD10146D3
:1058C0002046BDE81040FFF7A3BF00BF01230370CF
:1058D0000048704724A8FF1F30B585B00D460093DF
:1058E00009491346094A044600F0BEFF0DF10F00B6
:1058F000FFF7ECFF9DF80F2000950146044B204672
:1059000000F04AFD05B030BD1D68000015660000BE
:10591000F96100004318405C5B7803EB002080B223
:10592000704700BF70B490F890208167002380F822
:105930008430072A0D7836D90131A2F10803816736
:10594000DBB2012404FA02F2013A90F8916080F887
:1059500084302A4080F88220F5180A78EDB2072DAD
:1059600042FA03F221D94C1C8467C3F108044B7836
:10597000E1B203FA01F1083D1143EDB2C9B290F86A
:10598000AA4080F88450012202FA06F3013BB4FADF
:1059900084F20B40520980F8864080F8833080F80A
:1059A000872070BC70471346CBE7D1B2E7E700BF52
:1059B0000020704710B50B7803704B7843708B78DC
:1059C0008370CB78C3700B7903714B7943718B79FA
:1059D0008371CB79C3710B7A03724B7A43728B7AE2
:1059E0008372CB7AC3720B7B03734B7B43738B7BCA
:1059F0008373CB7BC3730B7C037402460C4608464F
:105A00001121FFF787FF132150822046FFF782FF05
:105A1000152190822046FFF77DFFD08210BD00BF88
:105A200070B4027B05688C182B78E4B2072C43FA1B
:105A300002F30AD96E1C0660C2F108026D78D2B278
:105A400005FA02F2083C1343E4B2012505FA01F21B
:105A50000139DBB2013AC9B205FA01F11A40047307
:105A6000531A58B270BC7047012B0BD007D3022BCE
:105A700002D1801A80B27047401A80B27047104439
:105A800080B27047084480B2704700BF012B0BD032
:105A900007D3022B02D1401A80B27047104480B263
:105AA0007047084480B27047801A80B2704700BFC8
:105AB0002DE9F04F87B005460F4690F8809090F89A
:105AC00081A005920EE095F88520002A46D0A742D5
:105AD0000AF10103A7EB040438D3E7B25FFA83FAB3
