:1000000000800020BD0100008DC4000045C4000038
:1000100045C4000045C4000045C4000045C40000BC
:1000200045C4000045C4000045C400008DC4000064
:100030008DC4000045C400008DE1000091E1000086
:100040008DC400008DC400008DC400008DC400006C
:100050008DC400008DC400008DC400008DC400005C
:100060008DC400008DC400008DC400008DC400004C
:100070008DC400008DC400008DC400008DC400003C
:100080008DC400008DC400008DC400008DC400002C
:100090008DC400008DC400008DC400008DC400001C
:1000A000D1470000DD4700008DC400008DC4000072
:1000B0008DC400008DC400008DC400008DC40000FC
:1000C0008DC400008DC400008DC400008DC40000EC
:1000D0008DC400008DC400008DC400008DC40000DC
:1000E0008DC400008DC400008DC400008DC40000CC
:1000F0008DC4000015F800008DC40000FDD0000084
:100100008DC400008DC400008DC400008DC40000AB
:100110008DC400008DC400008DC400008DC400009B
:100120008DC400008DC400008DC400008DC400008B
:100130008DC400008DC400008DC400008DC400007B
:100140008DC400008DC400008DC400008DC400006B
:1001500069E400007DE4000091E40000A5E40000F3
:100160008DC4000041D400008DC400008DC4000087
:100170008DC400008DC400008DC400008DC400003B
:100180008DC400008DC400008DC400008DC400002B
:100190008DC400008DC400008DC400008DC400001B
:1001A0008DC400008DC400008DC400008DC400000B
:1001B0008DC400008DC400008DC40000564B4CF26D
:1001C000205210B51A804DF628121A8000BF00BFC9
:1001D0000CF060F9514B4FF010621A60504A9A606F
:1001E000504ADA60504A136813F4807304D14F49BF
:1001F0000B604FF4A85313604D4B1A78110703D5C9
:100200001A7842F008021A704A4B4B492A221A7097
:100210004A4A4B4B8B4204D252F8040F43F8040B6A
:10022000F8E7484B484900228B4202D243F8042B9E
:10023000FAE74649464A002352F8230041F82300D2
:1002400001336F2BF8D1434B434A802103F8011B44
:100250009342FBD1414B3D4A1A60414B8A221A70AE
:10026000A3F5805324225A70A0221A709A7992071B
:10027000FCD59A79D406FCD43A4A937903F00C035E
:10028000082B384BF9D103221A7140225A719A79FE
:100290009006FCD5334A9179324B4906FBD5324A58
:1002A000324911600221516020221A709A7902F0BD
:1002B0000C020C2AFAD12E4B2E4A1A602E4B2F4AD2
:1002C0001A6000225A60072243F8042C2C4AC3F813
:1002D0000C2D62B60CF0EAFA144B1B68DA0705D550
:1002E00028480CF045FA284B284A1A60284B1B78FE
:1002F0005B0609D5244C254B22689A4204D121483B
:100300000CF036FA002323600CF0CAF810F066FDFA
:100310000EF0D2F8FEE700BF0E200540308004400A
:10032000823F04000100002B10D0034014D0034092
:1003300002D0074000E00740189AFF1F1078010024
:100340002087FF1F189AFF1F70ABFF1F0082FF1F3F
:100350000000000000E400E05FE400E008ED00E0E1
:100360000050064000400640448004400000030165
:1003700004800440C010050014E000E0FF76010096
:1003800000002020EC3426661CE00340A5C3945AEC
:1003900000F00740FFFFFFFFFFFFFFFFFFFFFFFF32
:1003A000FFFFFFFFFFFFFFFFFFFFFFFFFFFFFFFF5D
:1003B000FFFFFFFFFFFFFFFFFFFFFFFFFFFFFFFF4D
:1003C000FFFFFFFFFFFFFFFFFFFFFFFFFFFFFFFF3D
:1003D000FFFFFFFFFFFFFFFFFFFFFFFFFFFFFFFF2D
:1003E000FFFFFFFFFFFFFFFFFFFFFFFFFFFFFFFF1D
:1003F000FFFFFFFFFFFFFFFFFFFFFFFFFFFFFFFF0D
:10040000FFFFFFFFFFFFFFFFFFFFFFFFDEF9FFFF23
:1004100010B5054C237833B9044B13B10448AFF33E
:1004200000800123237010BD189AFF1F00000000F8
:100430000C780100084B10B51BB108490848AFF310
:1004400000800848036803B910BD074B002BFBD0A0
:10045000BDE81040184700BF000000001C9AFF1FB5
:100460000C780100189AFF1F000000000CF07AB908
:10047000F0B53C4C3C4A20683C4D3D4F85B040F2C5
:10048000EE2613783BB12B78DB0704D52368396857
:100490005B1A0E2B07D8236811781B1A00294AD043
:1004A000B3F5FA6FEDD900200BF0F4FE0C200BF041
:1004B00017FF4FF4FA700CF0ABF90A212D480DF03C
:1004C000FFFC58212C480DF0FBFC2C480EF03CF8AA
:1004D00000F070FD00F022FA294805F0C3F805F09D
:1004E00079F840F2B273984228D002F0D9FF01F0B7
:1004F000F5FA01F017FB03F0CDFA03F0C7FC01F0A9
:10050000E7F800F0B9F80E211E480DF0D9FC1B48A1
:100510000EF01AF818211C480DF0D2FC2368039342
:100520000399164800230A220EF022F813480EF011
:100530000BF805B0F0BDB342A3D9B4E7104805F0FD
:1005400091F8062240F2E4738DE80C002F2113236A
:100550000022052005F050F804F09CFF0CF008F98B
:10056000C3E700BFDCA8FF1F44AAFF1F5CAAFF1F50
:1005700060ABFF1F1050010048500100A48FFF1F07
:100580006D0400001C5001002C50010070B584B0B7
:100590000CF01CF92F4C304D286001F0E5F901F00A
:1005A000A7F9207801F0BCFF03F084FC00F0D4F937
:1005B00000F07CF82378002B40D1284E284A33687D
:1005C0000093009B11685B1AC72B07D9336801930E
:1005D000019B136002F0B4FC237843B93368214ACD
:1005E0000293029B10681D491B1AD12B12D80CF0E4
:1005F000EDF82B681C4AC01A106003F027FC1B4A58
:100600001388632B04D801339BB2642B138011D061
:1006100004B070BD164B096803911E78039B1360EC
:1006200096B1144E3378002BE1D100F04FFD012339
:100630003370DCE70023237004B070BD00F0CCFC05
:100640002378002BD3D1B8E700F068FE094B1E7069
:10065000CDE700BF0088FF1F3C9AFF1FDCA8FF1FEB
:10066000349AFF1F449AFF1F409AFF1F389AFF1FBA
:10067000409CFF1F489AFF1F10B5012105200CF078
:100680009FF80A24012105200CF086F832200CF096
:10069000BFF8002105200CF07FF832200CF0B8F8EC
:1006A000631E13F0FF04EDD110BD00BF2DE9F04330
:1006B000814D2C68632C85B000F0BA807F4F804E4E
:1006C0003B6802933368029A03F57A73934280F091
:1006D0009880DFF840927B49D9F80080404610F0BE
:1006E0005BF9002840F094807749404610F05EF9AD
:1006F000002840F08D80D9F804907249484610F0E7
:100700004BF9002840F088806F49484610F04EF9B8
:10071000002840F08180494640460FF08BFE0021C2
:10072000804610F04DF9002800F0B380404667493C
:1007300010F03CF910B1664B0122DA70654B664946
:10074000D3F80080404610F027F900285CD14046DD
:10075000624910F02BF9002856D1614B1A6842F219
:1007600027339A421CD95F4B5F49D3F8008040463B
:1007700010F012F9002800F08480554B01229A7283
:100780005A4B5B49D3F80080404610F005F920B978
:100790004046584910F00AF910B14D4B0122DA7267
:1007A000554BD3F800804FF08141404610F0F4F8EB
:1007B000002839D14046514910F0F8F8002833D1CB
:1007C0004F4BD3F800804FF08141404610F0E4F8E1
:1007D00030BB4046494910F0E9F808BB494BD3F813
:1007E00000804FF08141404610F0D6F820B94046D5
:1007F000454910F0DBF810B1354B01229A75622C97
:100800002AD005B0BDE8F083314B01221A71A4E76C
:100810002F4B01225A706EE72D4B01229A707AE716
:100820002B4B01225A75D9E7294B01221A75C7E7CC
:10083000224A364B12681B680192019A03F59C53B9
:1008400008339342DDD20023194605202B600BF0BC
:10085000A3FF05B0BDE8F083DFF8BC8098F8004046
:10086000652C09D81A4A135D13B115E0135D9BB9C5
:100870000134E4B2662CF9D1002388F800302B60F3
:10088000BFE74046224910F091F800283FF478AFC6
:1008900073E708F100404AE73B680393039B33602A
:1008A00001210023052013550BF076FF631C2C60FB
:1008B00088F80030A5E700BF0488FF1FDCA8FF1FF1
:1008C000B89AFF1F295C4F40CDCC5C40CDCC4C3D4D
:1008D000509AFF1F049CFF1F295CCF40CDCCDC4009
:1008E000309CFF1FF89BFF1F00001041D09BFF1F93
:1008F0003333D3400000E04034A3FF1F00004842E0
:1009000030A3FF1F44A3FF1F00002A43BC9AFF1F10
:10091000000038410CA3FF1F499AFF1F38B50D4C4A
:10092000204603F027FC0125D02320466B2184F8C4
:10093000633084F8AE5084F8AD5003F007FC2046D5
:10094000002103F003FC29462046BDE8384003F0AF
:10095000A7BD00BF6C8DFF1F2DE9F04FC54B1B7865
:100960008FB05BB1C44AC54B12681B680B920B9ADF
:1009700003F51C5310339342C0F0CE81C04CD023FA
:1009800001253B21204684F8633084F8AE5084F87A
:10099000AD5003F0DBFB0021204603F081FD2B4628
:1009A00020460E22682103F005FE94F8609094F82A
:1009B00061C0E14580F0B88104EB090209EB050351
:1009C000DBB2117E84F860309C454FEA012140F291
:1009D000AA812344DFF8D8B21B7EDBF8002009F19E
:1009E0000207FFB20B4399186745CBF8001084F853
:1009F000607080F0F781274409F103033A7EDFB28B
:100A000067454FEA022284F8607080F0EB8127444A
:100A100009F104093B7E5FFA89F91A4384F8609072
:100A2000984E3368E1451A44326080F0948104EBBB
:100A3000090009F1010390F818E09148DBB2634521
:100A40004FEA0E2E84F8603080F08481034409F16F
:100A500002091B7E5FFA89F743EA0E0E80F8607088
:100A6000894B00931D461B68BC459E44C5F800E0B9
:100A700040F2AF81E3197D1C187E814BEDB26545D4
:100A80004FEA002084F8605080F0A4811D440237B2
:100A90002D7E5FFA87F9284383F860907B4F3B688F
:100AA000E145034401933B6080F0498104EB090375
:100AB00009F1010093F81880714BC5B265454FEA02
:100AC000082884F8605080F03981581909F102092A
:100AD000007E5FFA89F540EA080083F86050DFF88D
:100AE000D481D8F80030AC4503440493C8F80030F2
:100AF00040F267816319681C93F818A0604B5FFA95
:100B000080F9E1454FEA0A2A84F8609080F0598123
:100B100003EB090005F10209007E5FFA89F940EA5A
:100B20000A0083F860905A4D2B68CC450344029329
:100B30002B6040F2F58004EB090009F10103DBB200
:100B4000007EDFF83CA184F8603063454FEA002066
:100B500080F0E680534409F102091B7E8AF8609018
:100B600043EA000A4B4CDFF850912068D9F8003076
:100B7000504403F1010ABAF1320F03902060C9F822
:100B800000A040F3C68091FBFAF392FBFAF14248D1
:100B9000424A059312680368DFF820C14048079273
:100BA0004FF0000206919EFBFAFEDCF80010027086
:100BB000002B38D0002936D0079A0892002A32D06C
:100BC000059A9B1A002B069AB8BF5B42891A0793B5
:100BD000089A0991A3F51C53103BCEEB0202B3F522
:100BE000FA5F089280F0C2802E4A136801331360C6
:100BF000079A44F24F639A4200F3DE800999002974
:100C0000B8BF494245F2C343994200F3D580089AE0
:100C1000002AB8BF524241F2CB039A4200F3CC8083
:100C2000214B00221A60144B1A680C920C9942F264
:100C30001072914260D91B4A1268012A40F3B180B8
:100C40001B680D930D4A194B0D99116001221A7002
:100C5000084B02701A70019B93FBFAF00E4B059A39
:100C60001A60069BCCF800300C4BC3F800E00FF084
:100C700097FC25E00C9BFF1FDCA8FF1FCC9AFF1FF1
:100C80006C8DFF1FD49AFF1FD89AFF1FF89AFF1F81
:100C9000F49AFF1FFC9AFF1FC09AFF1FC89AFF1FFC
:100CA000EC9AFF1FE09AFF1FDC9AFF1FED9AFF1FCF
:100CB000D09AFF1FF09AFF1F049BFF1FC49AFF1FCB
:100CC0004C490FF075FD4C490FF0B6FB0FF098FE44
:100CD0004A49049B039A93FBFAFCDFF848E1029B24
:100CE00093FBFAF392FBFAFA0B60454A454B10600E
:100CF000CEF800C0C3F800A0009A0023C9F8003065
:100D0000CBF80030336013603B60C8F800302B60D4
:100D100023600FB0BDE8F08F3B4A002313702DE62F
:100D20004FF0FF3A1EE79946DFF8FCB0DBF8001001
:100D30000139CBF800104FF0FF3271E6A946DFF819
:100D4000EC80D8F80030013B0493C8F800304FF035
:100D5000FF30E8E699462D4B00931D461B6803F1D2
:100D6000FF3EC5F800E04FF0FF3097E600290B4644
:100D7000B8BF4B42A3F51C53103B42F6B3518B4214
:100D80007FF632AF002A1346B8BF5342A3F5FA7379
:100D900040F6D7618B427FF627AF1D4B00221A60C9
:100DA00026E71C4B1B68632B7FF755AF16490022C3
:100DB00002230A7003704EE7164A1368013313606A
:100DC00031E7154D2B68013B02932B604FF0FF3A42
:100DD000C8E63D46114F3B68013B01933B604FF035
:100DE000FF307CE60E4E3268013A32604FF0FF3E33
:100DF00036E600BF0000AA43B81E1242E89AFF1F61
:100E0000009BFF1F089BFF1F0C9BFF1FD89AFF1F13
:100E1000E09AFF1FDC9AFF1FF49AFF1FF89AFF1F4A
:100E2000D49AFF1FE49AFF1FD09AFF1FF09AFF1F6A
:100E300000207047704700BF38B5044600F1080530
:100E4000D4F8B430284698474FF6FD73984201D93C
:100E5000012038BD0346B4F8BA20B4F8B8102846CB
:100E60000AF0C8FA94F89030032BF1D8DFE803F0C9
:100E7000140E0802B4F8BA30181AA4F8BA00E7E75A
:100E8000B4F8B830181AA4F8B800E1E7B4F8BA30EA
:100E90001844A4F8BA00DBE7B4F8B8301844A4F852
:100EA000B800D5E72DE9F0471546002A4ED0044694
:100EB0000F46DFF89C90002600F108084FF6FD7AF7
:100EC00003E00120013D064425D0236817F8011BEB
:100ED0001B684B4537D1D4F8B4304046984750454D
:100EE000EFD80346B4F8BA20B4F8B81040460AF078
:100EF00081FA94F89030032BE3D8DFE803F01D1655
:100F00000F02B4F8BA30181AA4F8BA00013D4FF035
:100F100001000644D9D13046BDE8F087B4F8B830B6
:100F2000181AA4F8B8000120CCE7B4F8BA30184475
:100F3000A4F8BA000120C5E7B4F8B8301844A4F802
:100F4000B8000120BEE720469847BBE71646E2E717
:100F5000390E000008B5114809F07AFF10490F4812
:100F60000AF0F0FA0F4B0D480C2204210AF0B0FAF7
:100F70000D4B0A481E220E210AF0AAFA0B49074817
:100F80000AF0E0FA0A4B05483C2264210AF0A0FA74
:100F9000024809F073FF0028E0D108BD189BFF1F2D
:100FA0002C6D0100D4500100E4500100606A010082
:100FB000F450010010B5074C20460AF0B7FE204659
:100FC00009F086FF204600210AF0B8FEBDE8104077
:100FD000FFF7C0BF189BFF1F10B58EB004F0FAFAE0
:100FE0003449024606A810F045FD04F0E3FA324900
:100FF000024601A810F03EFD04F0CCFA2E4902464C
:1010000002A810F037FD02A908A810F059FD2F24FE
:10101000047001A9013010F053FD06A904700130DD
:1010200010F072FD04F086FA2349024603A810F07E
:1010300021FD04F08FFA2049024604A810F01AFDA1
:1010400004F098FA1C49024605A810F013FD03A904
:101050000BA810F035FD3A2404A90470013010F0FB
:101060002FFD05A90470013010F04EFD134809F062
:10107000EFFE134911480AF065FA124B0F48082297
:1010800004210AF025FA10490C480AF05BFA08AB73
:101090001A22142109480AF01BFA0BAB2E221E213A
:1010A00006480AF015FA054809F0E8FE0028E0D1E4
:1010B0000EB010BDFC50010004510100189BFF1F31
:1010C000C05901000C5101002C6D010000B5134BFB
:1010D00093E8070085B001AB03C311481A8009F0FB
:1010E000B7FE10490E480AF02DFA0F4B0C480822A3
:1010F00004210AF0EDF90D4909480AF023FA01AB81
:101100002322142106480AF0E3F9054809F0B6FE47
:101110000028E6D105B05DF804FB00BF20510100B6
:10112000189BFF1FC05901000C510100A461010070
:101130002DE9F04F8FB004460E4606A87049714D58
:1011400092469B460DF05CFC214606A80DF0E8FC9B
:1011500006A803A9002303220DF01EFD002402E0CF
:10116000662C00F0CB8055F8341030460FF014FC9C
:1011700005EBC40301340028F2D058680FF040FC9E
:101180000446614906A80DF077FC214606A80DF03B
:10119000C7FC5E4906A80DF0B5FC0023052204A992
:1011A00006A80DF0F9FC584906A80DF065FC0222CE
:1011B00031460AA80DF046FC0AA906A81FFA8BFBC7
:1011C0000DF09CFC0AA81FFA8AFA0DF0D9FB0BF16E
:1011D00009074F4906A80DF095FCBFB20AA90023E4
:1011E000062206A80AF11E080DF0D6FC1FFA88F8A0
:1011F00003AB3A46002147480BF10A040AF068F9AC
:10120000A4B243465A4651464248CDF800B00AF0CF
:101210007DFA4346414600945A463E480AF076FA23
:1012200041462246009453463A480AF06FFA224655
:10123000534651463748CDF800B00BF104040AF08C
:1012400065FAA4B20AF11F01224689B2032331488C
:101250000AF00CFA0AF12001224689B203232D4834
:101260000AF004FA0AF12C0104AB3A4689B2294883
:101270000AF02EF90AF14D013A460AAB89B2254827
:101280000AF026F94FF000094FF00008002401E0B1
:10129000662C25D055F8341030460FF07DFB05EB59
:1012A000C40701340028F3D078680FF0A9FB0FF0D1
:1012B00077F90146484608F101080FF063FBB8B121
:1012C0000BF101020AEB080192B289B2092311481D
:1012D0000AF0CCF9484610490FF0AEF88146D5E740
:1012E0000021484608F101080FF04CFB0028E7D127
:1012F00006A80DF045FB0FB0BDE8F08F044640E7AF
:101300002C5101000888FF1F68590100305101006D
:1013100034510100189BFF1F00006040F0B5584D8C
:10132000584E696828688BB00FF086F84FF07C51F2
:101330000FF08AF90024074602E0662C00F09D8039
:1013400056F8341038460FF027FB06EBC40301347F
:101350000028F2D058680FF053FB044602A84A490F
:101360000DF04EFB214602A80DF0DAFB02A847491A
:101370000DF0C8FB0023052202A869460DF00CFC05
:1013800002A841490DF078FB696828680FF054F80D
:101390000222014606A80DF055FB06A902A80DF091
:1013A000ADFB06A80DF0ECFA02A839490DF0AAFB36
:1013B00002A806A9002306220DF0EEFB354809F02D
:1013C00047FD14E020460FF0DDFA334920B93046DE
:1013D0000FF0D8FA002843D0304B2E483C220C2185
:1013E0000AF076F82B4809F049FD002833D02C4943
:1013F0002848234E0AF0A6F82A4B26480822042142
:101400000AF066F81023122229680120FFF790FEE7
:101410002123122269680220FFF78AFE22491D4813
:101420000AF090F82C68214920460FF0C9FA1F49AC
:1014300030B9766830460FF0C3FA17490028C1D09A
:101440001B4B14483C2200210AF042F8114809F0D5
:1014500015FD0028CBD102A80DF092FA0BB0F0BD1B
:101460006B463C2207210B480AF032F806AB3C22BF
:10147000472108480AF02CF8B4E704466EE700BF9D
:101480000CA3FF1F0888FF1F68590100305101009D
:1014900034510100189BFF1F9A9949405C5101008B
:1014A000C059010038510100A46101003333634089
:1014B0004C51010030B5134C134B144A236004F116
:1014C000080583B000232846C4F8B4202371A4F88B
:1014D000B830A4F8BA300AF0A5FA0D4820600D4BD8
:1014E0000D4A0E49284609F009FD192218230192D8
:1014F0000093284604232022212109F05DFC03B03B
:1015000030BD00BF109BFF1FAC50010015BA00009A
:10151000C4500100B5AC0000B5AD0000347201004C
:101520002DE9F043002585B02E46322415200AF01F
:101530000BFF064416200AF007FF013C0544F5D1D5
:101540004D4CF01784FB0636C0EB26100FF028F840
:10155000064684FB0530ED17C5EB20100FF020F890
:101560004649044630460FF06FF844490546204688
:101570000FF06AF84249044628460EF05BFF4149E5
:10158000054620460EF056FF3F49044628460FF018
:101590005BF83E49064620460FF056F83C490446A3
:1015A00030460FF0EFF9002859D13A4930460FF094
:1015B000FFF83749804620460FF0E4F9002857D15C
:1015C000344920460FF0F4F80746334D334A2B6870
:1015D0000193019B1168324ADFF8EC905B1A1360AB
:1015E00018460EF0D9FF41460FF02EF82D49DFF8CE
:1015F000DC800FF0DDF82C490FF026F82B4B01466C
:101600001960D9F800000EF017FF2B68284A0293E2
:10161000029BC9F800001068264A181A264B106071
:101620001E600EF0B9FF39460FF00EF81D490FF09D
:10163000BFF81D490FF008F8204B01461960D8F893
:1016400000000EF0F9FE2B6803931D4A1D4B039911
:10165000C8F8000011601C6005B0BDE8F0834FF0D1
:1016600000080B49204646460FF08CF90028A7D009
:1016700000242746A9E700BF1F85EB513333533AB7
:10168000355E2A40C1CA29403E79A640CA328E4002
:10169000CDCC4C3E00007A44DCA8FF1FF09BFF1F1E
:1016A000E89BFF1F00BA5B4A00247449E49BFF1FBC
:1016B000CC9BFF1F189CFF1F089CFF1FFC9BFF1F5C
:1016C000E09BFF1F109CFF1FD49BFF1F0C9CFF1F64
:1016D00000B5002183B015200BF072F80021162010
:1016E0000BF06EF8002117200BF06AF80021102093
:1016F0000BF066F8002111200BF062F8064B074949
:101700001A68019201981B680093009A044B0860C4
:101710001A6003B05DF804FBDCA8FF1FF09BFF1FFD
:10172000CC9BFF1F2DE9F04F0D2083B00BF03AF852
:10173000B0FA80F149090D200BF02EF810200AF0C4
:1017400003FE5D4E5D4D5E4C5E4FDFF8A0810EF0F6
:1017500027FF5D490EF078FF31680EF06DFE3060B6
:1017600011200AF0F1FD0EF01BFF57490EF06CFF3F
:1017700029680EF061FE286017200AF0E5FD0EF0E2
:101780000FFF51490EF060FF21680EF055FE2060FA
:1017900014200AF0D9FD0EF003FF4B490EF054FF60
:1017A00039680EF049FE0246D8F800003A60013070
:1017B00002280092C8F8000055DD0EF0F1FE8146C7
:1017C000014630680EF0F4FF40490EF03DFF404AFC
:1017D000034613604946286801930EF0E9FF3D492E
:1017E0000EF032FF3C4B83464946C3F800B02068F8
:1017F0000EF0DEFF39490EF027FF009A384B824683
:1018000049461046C3F800A00EF0D2FF35490EF04D
:101810001BFF019B009002461846334B4FF0000916
:101820000021C8F800101A604FF07E51C7F80090F0
:10183000C6F80090C5F80090C4F800900FF0A2F828
:1018400028BB58464FF07E510FF09CF848BB5046DD
:101850004FF07E510FF096F870B900984FF07E511E
:101860000FF090F810B903B0BDE8F08F1E4A0023C6
:10187000136003B0BDE8F08F194A0098002313608D
:101880004FF07E510FF07EF80028ECD0EEE7104BC1
:101890005846C3F800904FF07E510FF073F80028BF
:1018A000D5D00D4A0023136050464FF07E510FF003
:1018B00069F80028D1D0DFE7DC9BFF1F009CFF1FE9
:1018C000D89BFF1FF49BFF1F3333533A2973814189
:1018D000F89BFF1F9A4EFB40D09BFF1F098ADF3FFA
:1018E000EC9BFF1F1081F740049CFF1F149CFF1FFF
:1018F00000B583B0FFF716FF074B084A1B6801933A
:10190000019B12689B1AB3F5FA7F01D3FFF708FE1B
:1019100003B05DF804FB00BFDCA8FF1FE09BFF1FC6
:10192000064B07491A6882B0009200981B68019321
:10193000019A044B08601A6002B07047DCA8FF1FD0
:10194000F09BFF1FCC9BFF1F024A136801331360FB
:10195000704700BF249CFF1F024A136801331360C5
:10196000704700BF3C9CFF1F2DE9F04F4E4C4F4D80
:1019700023683C2B83B058DD0AF028FF22682B68CF
:101980004B4EDFF84C91DFF84CA1DFF84C81494F0A
:10199000C01AB9FBF0F002FB00F00EF0FDFD464B63
:1019A000316800930EF048FDDAF800203060013213
:1019B0004FF0000BCAF80020C4F800B00AF006FF90
:1019C000D8F800102A68801AB9FBF0F001FB00F08B
:1019D0000EF0E2FD39680EF02FFD009BC8F800B054
:1019E00081461C68DAF80000C7F800900134072827
:1019F0001C6025DCDFF8C4800AF0E8FE2860D8F817
:101A000000302E49A3F6AC5346F28472934205D8B7
:101A10002B4B01221A7003B0BDE8F08F284A002337
:101A200013700B6003B0BDE8F08F0AF0CFFE2B6897
:101A300003F57433903398429ED8DFF88080DEE758
:101A400001930EF0ADFD01463068DFF870800EF0B6
:101A5000AFFE4FF07C510EF0F7FD0EF0F7FF0022C5
:101A6000C8F80000204632600092CAF800B00EF0BC
:101A700097FD014648460EF09BFE4FF07C510EF05C
:101A8000E3FD0EF0E3FF019B0E49009A3A60C3F8B4
:101A900000B008600EF080FD0B490C4C0EF088FE83
:101AA0000EF0D4FF2060A7E7249CFF1F449CFF1F7B
:101AB0001C9CFF1F209CFF1F349CFF1F309CFF1F9E
:101AC000409CFF1F289CFF1FE17AD8402C9CFF1FE1
:101AD00000879303389CFF1F3C9CFF1F022108B521
:101AE00008460AF06DFE022210460A490AF07AFD05
:101AF000022103200AF064FE0222074903200AF0B3
:101B000071FD1F2105480CF0DBF90548BDE80840D0
:101B10000CF01ABD49190000591900006851010064
:101B2000A48FFF1F70B51F4D1F482B6884B0002481
:101B30000193019E03F0CAFD2B680293029B9B1B3D
:101B4000B3F5487F0ED2194B194A1A49164803F0CB
:101B50008FFE2B680293029B9B1B0134B3F5487FD9
:101B6000E4B2F0D31A2114480CF0AAF900230A2297
:101B7000214612480CF0FCFC062111480CF0A0F99B
:101B8000092110480CF09CF92B68039303990B482A
:101B9000891B00230A220CF0EBFC08480CF0D4FC53
:101BA00004B070BDDCA8FF1FF49FFF1F549CFF1FF3
:101BB000259EFF1FD49FFF1F88510100A48FFF1F88
:101BC000A4510100AC51010070B4304A304913688F
:101BD000097883B00093009809BB2E4B19782E4BDF
:101BE00002291C7805D003294AD0022902D92B4B9F
:101BF00001E0A4B92A4B1B782A4D2B4E013B35F846
:101C0000135036F813309D4228D1284B195D31B955
:101C100012680192264A0199116001221A55002288
:101C20002448254C0178254D44F821204B1CDBB27B
:101C3000642B08BF00230370214B00242C60214635
:101C400003F5C87053F8042F8A4284BF114601245B
:101C50008342F7D1BCB903B070BC7047134D2B5D04
:101C6000002BDCD0124B1B68C31A9BB201290CBF9E
:101C700003F1090203F11202002392B22B55CFE7C0
:101C8000002CB4D1CBE72960E5E700BFDCA8FF1F3B
:101C9000289EFF1F489CFF1F249EFF1F279EFF1F9B
:101CA000269EFF1FD49FFF1F049EFF1F009EFF1F45
:101CB000F89DFF1FFC9DFF1F40A1FF1FCC9FFF1F32
:101CC0003CA1FF1F404B41491B780022012B0A70A9
:101CD0005AD070B53E4B3F4D1B783F4C013B82B014
:101CE00035F8136034F813309E423C4B1B7803F1F7
:101CF000FF3331D035F8135034F813309D4224D0DF
:101D0000374C384D23682A700133012223600A7052
:101D1000054618460EF040FC334B344C0646186816
:101D20000EF03AFC014630460EF042FD30490EF00E
:101D30008BFC01462E480EF07DFB20601DB92D491D
:101D40000EF020FE18BB02B070BD264B1C7864B1AB
:101D500023491A700B68DBE735F8132034F8133089
:101D60009A4209D01F4A13784BB31D4A13680124C5
:101D7000234413600C70CBE71A49194B0A781B688F
:101D800082F001020A70C3E7164B1A7070472321D4
:101D900019480CF095F820680DF0FCFF022402466B
:101DA0000B46009415480CF02BFC012114480CF054
:101DB00087F8124802B0BDE870400CF0C5BB084B74
:101DC00001211B681170A3E7489CFF1F289EFF1F7D
:101DD000269EFF1F049EFF1FD49FFF1F279EFF1FED
:101DE00034A1FF1F249EFF1FE89DFF1F4C9CFF1F77
:101DF0000000C8420000C342B8510100A48FFF1F79
:101E000030510100F0B42A4B1A7882B0002A2FD04A
:101E1000284A1378002B43D1274B284D1B682849AB
:101E20000093284C28680B68274E009F27600124E8
:101E3000013046F82340286014700133632B234A95
:101E400088BF00230B6002F5C870002352F8041FFE
:101E50000B4482429BB2F9D1642B98BFC3F1640357
:101E60001B4A94BF9BB20023138002B0F0BC7047A2
:101E7000134910480B68144D047845F82320002CB2
:101E8000DBD00D4A0F4D1268124C01922E68019A58
:101E90002568921BAA4288BF226000220270CCE70C
:101EA0000749094A0B68002042F82300C5E700BF34
:101EB000549CFF1FD0A2FF1FDCA8FF1F309EFF1FF6
:101EC000F49DFF1F30A1FF1F589CFF1F549CFF1F54
:101ED000509CFF1F3CA1FF1F10B4154B1B7883B013
:101EE0008BB1144B1A785AB9134A144910680090F0
:101EF0000A681348009C0460013201200A601870CF
:101F000003B010BC70470B4A1378002BF8D00A4B73
:101F10000B481B680B4901930468019B08681B1B55
:101F2000834288BF0B600023137003B010BC70475E
:101F3000259EFF1FC89FFF1FDCA8FF1F2C9EFF1FB1
:101F4000EC9DFF1FD09FFF1F2DE9F04FB54D91B0C5
:101F50002B680793079B03932B680693069B2B68BC
:101F60000593DDF81490019200230C9380468B4674
:101F700013701C4602930D930E930F931F462B680C
:101F80000893089BC9EB0303C72B40F2C2800B21C7
:101F9000A548019FDFF8C0A20BF092FF2146A3489D
:101FA0000CF026FBA1480CF0CFFA1621A0480BF04C
:101FB00087FF00230A2239789C480CF0D9FA9B4805
:101FC0000CF0C2FA28219B480BF07AFF00230A226A
:101FD00098F8001095480CF0CBFA94480CF0B4FA3D
:101FE000282195480BF06CFF00230A229BF8001073
:101FF0008E480CF0BDFA8D480CF0A6FA2B680993B8
:10200000099E4FF000092B680A930A9B9B1BC72B64
:1020100040F2C38098F80030002C00F03081002B93
:1020200000F038819BF8003043B902233B7098F8E8
:102030000030002B00F02E819BF80030002B40F088
:1020400058810B2178480BF03BFF214677480CF074
:10205000CFFA76480CF078FA282176480BF030FF5A
:1020600000230A2298F8001070480CF081FA6F489B
:102070000CF06AFA282170480BF022FF00230A2294
:102080009BF8001069480CF073FA68480CF05CFA91
:10209000162167480BF014FF00230A2239786348A1
:1020A0000CF066FA61480CF04FFA102163480BF00F
:1020B00007FF2B680B930B99039B5C48C91A0A22F4
:1020C00000230CF055FA59480CF03EFA98F800300D
:1020D000002B40F0EC809BF80030002B00F0FF80DC
:1020E0001E2157480BF0ECFE00230A229BF800103B
:1020F0004E480CF03DFA4D480CF026FA98F80030A6
:1021000023B99BF80030002B00F0E98011B0BDE846
:10211000F08F05200AF07CFB4A4B4B4A4B494C4858
:1021200003F0A6FB00283FF42AAFDFF830E149486E
:10213000F4460EAE092102882AB10CB90137FFB26C
:102140000B2F28BF01243CF8023FD31A002BB8BF45
:102150005B420C3B082B0FD833789BF800A001336F
:10216000DBB29A45337002D28BF8001002883A4BEA
:102170004FF0010A83F800A0013111292EF8022F37
:1021800000F1020006F10106D5D1029B0133DBB25A
:10219000142B02933FF4FBAEF1E605200AF038FB66
:1021A000284B294A29492A4803F062FB00283FF4BA
:1021B0002AAFDFF8ACC0254A0DF1300E012123E033
:1021C000CBB9BCF80030C31A002BB8BF5B42063B4A
:1021D000042B10D89EF8003098F800000133DBB2D1
:1021E000984238BF88F800108EF8003010884FF001
:1021F00000038AF80030013109292CF8020B02F1A2
:1022000002020EF1010E2DD03B781088032BD7D19E
:10221000BCF80030C31A002BB8BF5B420C3B082B44
:10222000D8D9E8E7DCA8FF1FDC510100A48FFF1F0D
:1022300040520100E85101001452010058520100BF
:102240008C520100549CFF1F259EFF1FD49FFF1F2F
:10225000F49FFF1FE49FFF1F249EFF1F129EFF1F7E
:10226000049EFF1F09F101095FFA89F9B9F1140F02
:102270007FF4C9AE98F80030002C7FF4D0AE002B6C
:102280003FF4DFAE9BF80030002B7FF4DAAE012381
:102290003B70D6E69BF80030002B3FF4D2AE032310
:1022A0003B7098F80030002B3FF4CBAEC4E61D2104
:1022B00011480BF005FE00230A2298F800100F4881
:1022C0000CF056F90D480CF03FF99BF80030002B4C
:1022D0007FF406AF98F80030002B7FF417AF16217B
:1022E00007480BF0EDFD05480CF02EF911B0BDE8E4
:1022F000F08F04233B70A4E66C520100A48FFF1FF3
:10230000AC520100F8B54E4D2C78002C00F08A80BC
:102310004C4B022C1D785AD94B4A4C4B12784C49E5
:10232000013A33F8123031F812209B1A002BB8BF53
:102330005B429BB2474E32884A2A66D913229A42A0
:1023400069D2B3FBF2F3444944480A68042C02D032
:102350000B2B98BF5B0040F82230414B1B7813B128
:10236000012340F822300132632A98BF0A603D4AB7
:1023700084BF00230B6002F5C870002352F8041FCD
:102380000B4490429BB2F9D1642B3380364A9ABFFA
:10239000C3F164039BB20023338013682D4AB3F565
:1023A0007A7F04D2012C48D001D910211180A3F5E5
:1023B0007A72B2F57A7F02D2032C07D03580A3F26D
:1023C000DC53B3F5FA7F01D2042C32D0F8BD6A1E7B
:1023D0001E4B1F4933F8123031F812209B1A002B84
:1023E000B8BF5B42012C9BB2A4D11A4E32884B2A53
:1023F00034BF09270B27BB420DD9B3FBF7F31649AE
:1024000016480A6840F82230A7E7322A34BF112262
:1024100012229A4295D3104910480A68002340F8C6
:1024200022309AE72A4608490648FFF78DFD2C78A6
:102430006EE7054B1B783380F8BD08211180BEE79D
:10244000489CFF1F269EFF1F279EFF1FD49FFF1F34
:10245000049EFF1FC69FFF1F38A1FF1F349EFF1F52
:10246000259EFF1F309EFF1FE89DFF1F38B5234BA1
:10247000234A1B881488234A234D1278C3F1620330
:1024800003EB83039B00C4F14B041BB204EB440435
:1024900024B223EAE373002CC3F16403ACBF1C1B1A
:1024A0001C46012AE4B226D9184B194819680DF0C8
:1024B000C1FF18490EF0C8F80EF0A2FA00B20028C9
:1024C000A8BF241A60B2144B0F4A1C68303C24B2D7
:1024D000002CACBF041B044664B2002C2C7002DB41
:1024E0000E4B1B7813B100232B7038BD642CC4BF76
:1024F0006423137038BD60B2E5E700BF509CFF1F36
:10250000C69FFF1F489CFF1FF09DFF1F4C9CFF1F95
:102510000000C2420000A041CC9FFF1F259EFF1F6C
:1025200070B5194B194A1A4904461A4803F0A0F924
:1025300000B970BD184A136801331360FFF7CCFC73
:10254000FFF760FC154B1B78D3B9FFF73DFBFFF796
:10255000D9FEFFF78BFF124A124B12781B780C49F9
:10256000114C124E124D013A013B31F8120031F874
:10257000131024F81200308024F81310298070BD45
:102580002046FFF79FFBE0E7549CFF1F259EFF1F9F
:10259000D49FFF1FF49FFF1FE89DFF1F489CFF1F54
:1025A000269EFF1F279EFF1F049EFF1FC49FFF1F25
:1025B000529CFF1F10B5064C0649204603F066F8F2
:1025C0002046054A0549BDE810400DF079BA00BF24
:1025D000F49FFF1F688FFF1FFC87FF1F61570000DC
:1025E000036D0BB101207047406D003018BF012012
:1025F000704700BF10B50446806D18B10EF01EFC88
:102600000023A365236D2BB104F11800BDE8104031
:1026100007F050BD636D002BF6D110BDF0B500235F
:1026200095B01A460546183104A84FF47A74224F23
:102630008DF804308DF80C301293139302940097A8
:1026400007F08CFD129B002B2BD05C200BF03CFF85
:1026500004461A4B9DF80400029A1949236000268B
:102660009DF80C302073A160226104A9237504F148
:102670001800666007F0F0FC6368124AA760013337
:102680004FF47A71A6652E712E732C616360A96078
:102690002A600D4B009304A807F00CFD284615B0E6
:1026A000F0BD139B002BD0D1064A2B71AC602B736D
:1026B0002B612A60EDE700BF2C5301007C53010021
:1026C000E45201005053010008530100836C13B120
:1026D000184605F06BBFC06C08B103F0A3BD4FF006
:1026E000FF30704700B5836C83B063B11846012298
:1026F0000DF1070105F08AFE01280CD19DF80700B5
:1027000003B05DF804FBC06C28B101220DF1070194
:1027100003F0B4FCF0E74FF0FF30F1E7836C13B146
:10272000184606F077B9C06C08B104F0E1B97047FB
:10273000F0B5036D83B00C462BB318460DF10602BD
:1027400001A905F0C7FCD8B1BDF80430BDF80620DA
:1027500003B9AAB102F01F06C3F343155912C2F31D
:1027600045177600013D01F5EA6103F01F03D2121F
:1027700026706571A17123716770A27003B0F0BDFE
:10278000002003B0F0BD406D0028F9D00DF1060225
:1027900001A903F003FCD6E7036D9BB11A7812F090
:1027A000700F00D1704710B504460021184606F09E
:1027B0001FF8606D28B100220023BDE8104003F02F
:1027C00049BD10BD406D0028ECD090F8313013F0B9
:1027D000500FE7D00022002303F03CBD38B5846DD4
:1027E0000CB1204638BD05464FF480700EF01EFB3C
:1027F0000146A86580B1286D0C7028B14FF4807235
:1028000007F062FAAC6DECE7686D40B14FF480728E
:1028100005F09EF8AC6DE4E7024CAC65E1E70C46D0
:10282000DFE700BFD1A2FF1F8A79A2F150031B0688
:1028300020D4F0B54B79046D0D798E784F780978F6
:10284000013385B002F26C72DBB244B103918DE8C2
:10285000E0002046042106F0E3F805B0F0BD406D2D
:102860000028FAD003918DE8E000042104F0ACFACE
:1028700005B0F0BD00207047D0B5046D8CB1012BC0
:1028800008BF002A01D30020D0BD1146204605F024
:10289000AFFF0028F7D0204606F02AF90028F2D032
:1028A000D0BD446D002CEED0204603F0D3FC0028B0
:1028B000E9D02046BDE8D04004F034BBF0B5036D4C
:1028C00083B00C462BB318460DF1060201A905F0A2
:1028D00011FCD8B1BDF80430BDF8062003B9AAB187
:1028E00002F01F06C3F343155912C2F345177600D1
:1028F000013D01F5EA6103F01F03D21226706571F4
:10290000A17123716770A27003B0F0BD002003B005
:10291000F0BD406D0028F9D00DF1060201A903F0C9
:102920004DFBD6E7036D13B1D86900217047436DA5
:1029300013B118695969704718461946704700BFA6
:10294000036D13B1586900217047436D13B193E8CB
:102950000300704718461946704700BF036D13B156
:10296000184605F053BD406D08B103F087BB4FF02A
:10297000FF307047036D13B1184605F017BE406D68
:1029800008B103F04FBC4FF0FF307047036D33B117
:102990001B7813F0700F14BF012000207047406DAA
:1029A00030B190F8313013F0500F14BF01200020E7
:1029B000704700BF8A79A2F150031B0620D4F0B5FE
:1029C0004B79046D0D798E784F780978013385B095
:1029D00002F26C72DBB244B103918DE8E000204654
:1029E000022106F01DF805B0F0BD406D0028FAD0B8
:1029F00003918DE8E000022104F0E6F905B0F0BD96
:102A000000207047006970B30368184A1B6993423D
:102A10000ED1026D6AB1137803F0080303F0FF00D2
:102A20000BB3D3695069181A48BF6FF00040704764
:102A30001847416DC1B191F8313003F0080303F03C
:102A4000FF0083B1D1E90423D1E90001101A30B4A9
:102A500063EB010100256FF000448D4208BF844202
:102A600000D2204630BC7047084670471D2C00003D
:102A7000036D13B1184605F0CDBF406D08B104F0E9
:102A800037B8704710B5036982B08DF80710BBB135
:102A90001968104ACC68944215D1186D30B10122E2
:102AA0000DF1070106F060F802B010BD586D002866
:102AB000FAD001220DF1070104F0A4FA02B010BD12
:102AC000184602B010BD184601220DF10701A047BB
:102AD00002B010BD712B0000036973B11A68084978
:102AE00052698A4207D1186D08B105F05FBD586D73
:102AF00018B103F097BB184610474FF0FF307047EE
:102B000075290000036923B310B51968124A8C684F
:102B1000944282B014D1186D48B101220DF1070121
:102B200005F074FC90B19DF8070002B010BD586D1F
:102B30000028F8D001220DF1070103F09FFAF1E718
:102B4000184601220DF10701A047EBE74FF0FF30D7
:102B5000EBE74FF0FF3070475D290000836C13B145
:102B6000184606F001B8C06C08B104F04BBA7047C3
:102B7000036D13B1184605F0F7BF406D08B104F0BE
:102B800041BA704700B5836C83B08DF8071043B12C
:102B9000184601220DF1070105F0E6FF03B05DF8CC
:102BA00004FBC06C0028F9D001220DF1070104F0EC
:102BB00029FA03B05DF804FB03697BB110B41C680B
:102BC0000B48E46884420ED1186D10B110BC05F0BA
:102BD000CBBF586D20B110BC04F014BA0020704770
:102BE000002010BC70471846234610BC184700BF91
:102BF000712B0000036963B11A68074992698A4220
:102C000008D1186D08B105F005BF586D08B103F083
:102C10006FBF704718461047712A0000026D62B1FD
:102C2000137803F0080303F0FF0003B3D36950697E
:102C3000181A48BF6FF000407047416DC1B191F85C
:102C4000313003F0080303F0FF0083B1D1E904231E
:102C5000D1E90001101A30B463EB010100256FF0D7
:102C600000448D4208BF844200D2204630BC7047E9
:102C700008467047826C62B1137803F0080303F0D2
:102C8000FF0003B3D3695069181A48BF6FF00040C2
:102C90007047C16CC1B191F8313003F0080303F003
:102CA000FF0083B1D1E90423D1E90001101A30B447
:102CB00063EB010100256FF000448D4208BF8442A0
:102CC00000D2204630BC704708467047D0B4039C01
:102CD00016461F4634B1012C1ED0022C0DD0002008
:102CE000D0BC7047046DDCB1012B08BF002AF6D2BE
:102CF00020461146D0BC05F07BBD036DB3B1DA6947
:102D0000B61847F10007012F08BF002EE7D2314661
:102D10001846D0BC05F06CBD036D8BB15A69EFE766
:102D2000406D0028DBD0D0BC03F094BA406D002881
:102D3000D5D0D0E9042392197B41D0BC03F08ABAE4
:102D4000406D0028CBD0D0E9002392197B41EAE7FF
:102D500038B50446806D0C4B236018B10EF06EF848
:102D60000023A365236D04F118054BB1284607F035
:102D7000A1F9064BA360284607F09CF9204638BD10
:102D8000636D002BF2D1F4E77C530100085301007E
:102D900038B50446806D0E4B236018B10EF04EF826
:102DA0000023A365236D04F118056BB1284607F0D5
:102DB00081F9084BA360284607F07CF920465C2186
:102DC0000BF084FB204638BD636D002BEED1F0E79D
:102DD0007C5301000853010070B50469244B036063
:102DE00005461CB16668013E66600EB1284670BD9E
:102DF0002368204ADB6A93422CD1A06D10B10EF0FB
:102E00001DF8A665236D5BB304F1180007F052F9B5
:102E10002C69002CEAD02368174A5B6893421CD1C6
:102E2000A06D164B236018B10EF008F80023A365BF
:102E3000236D04F11806BBB1304607F03BF9104B87
:102E4000A360304607F036F920465C210BF03EFBCC
:102E5000284670BD20469847DAE720469847C5E7E0
:102E6000636D002BD0D1D3E7636D002BE4D1E6E78F
:102E700050530100F5250000912D00007C53010006
:102E80000853010070B50569284B036004461DB165
:102E90006E68013E6E602EB1204614210BF016FBC9
:102EA000204670BD2B68224ADB6A934230D1A86D60
:102EB00010B10DF0C3FFAE652B6D7BB305F11800AB
:102EC00007F0F8F82569002DE6D02B68194A5B68F1
:102ED000934220D1A86D184B2B6018B10DF0AEFFB6
:102EE0000023AB652B6D05F11806DBB1304607F00A
:102EF000E1F8124BAB60304607F0DCF828465C2165
:102F00000BF0E4FA204614210BF0E0FA204670BDE5
:102F100028469847D6E728469847BDE76B6D002BB3
:102F2000CCD1CFE76B6D002BE0D1E2E7505301002D
:102F3000F5250000912D00007C530100085301008D
:102F400070B50D4C20698AB060B103680B4A1B6BE9
:102F5000934240F02582036D002B00F01C82084B49
:102F60001B789BB9192107480AF0AAFF06480BF005
:102F7000EBFA0AB070BD00BF388BFF1FE1250000DF
:102F8000D4A2FF1FDC530100A48FFF1FA949AA4D43
:102F900006A80BF035FD02F00DFBA8490246684675
:102FA0000EF068FD02F0F6FAA449024601A80EF000
:102FB00061FD02F0BFFAA149024602A80EF05AFDD7
:102FC00002F0C8FA9D49024603A80EF053FD02F034
:102FD000D1FA9A49024604A80EF04CFD02F0FAFA22
:102FE000014606A80BF09CFD954906A80BF08AFD4A
:102FF000694606A80BF086FD914906A80BF082FDF4
:1030000001A906A80BF07EFD8E4906A80BF07AFDFB
:1030100002A906A80BF076FD8B4906A80BF072FDFD
:1030200003A906A80BF06EFD874906A80BF06AFD00
:1030300004A906A80BF066FD844906A80BF062FD02
:10304000834B1B680593059906A80BF07DFD7D4910
:1030500006A80BF057FD7F4B06A819680BF074FD0E
:10306000784906A80BF04EFD7B4B06A819680BF0BB
:103070006BFD744906A80BF045FD784B06A819783E
:103080000BF04EFD6F4906A80BF03CFD744B06A8F3
:1030900019680BF059FD6B4906A80BF033FD714B15
:1030A00006A819680BF050FD664906A80BF02AFD2A
:1030B0006D4B06A819680BF047FD624906A80BF096
:1030C00021FD6A4B06A819680BF03EFD5D4906A874
:1030D0000BF018FD664B06A819880BF021FD594925
:1030E00006A80BF00FFD634B06A893F900100BF038
:1030F00017FD544906A80BF005FD5F4B06A819887B
:103100000BF00EFD4F4906A80BF0FCFC5B4B06A82C
:1031100019680BF019FD4B4906A80BF0F3FC584B4E
:1031200006A819680BF024FD464906A80BF0EAFC36
:10313000544B06A819880BF0F3FC424906A80BF083
:10314000E1FC514B06A819880BF0EAFC3D4906A8A2
:103150000BF0D8FC4D4B06A819680BF009FD394956
:1031600006A80BF0CFFC4A4B06A819680BF000FD2F
:10317000344906A80BF0C6FC464B06A819680BF0AC
:10318000F7FC304906A80BF0BDFC434B06A81968B4
:103190000BF0EEFC2B4906A80BF0B4FC3F4B06A845
:1031A00019680BF0E5FC274906A80BF0ABFC3C4B7B
:1031B00006A819680BF0DCFC224906A80BF0A2FC5B
:1031C000384B06A819680BF0D3FC696828680DF025
:1031D00033F91C49064606A80BF094FC314606A8B4
:1031E0000BF0C6FC174906A80BF08CFC296806A852
:1031F0000BF0BEFC134906A80BF084FC696806A816
:103200000BF0B6FC0F4906A80BF07CFC264B06A879
:1032100019680BF0ADFC0B4906A80BF073FC234BAF
:1032200006A819680BF0A4FC064906A80BF06AFC76
:103230003EE000BF685901000CA3FF1F04510100CC
:10324000D0530100D4530100C4520100D8530100EF
:10325000DCA8FF1F0488FF1F4C9AFF1F409CFF1F24
:10326000309CFF1F289CFF1F2C9CFF1FE89DFF1F09
:10327000509CFF1FF09DFF1FC69FFF1FCC9FFF1F8D
:103280004C9CFF1FC49FFF1F529CFF1FF89BFF1FFA
:10329000D09BFF1F109CFF1F34A3FF1F049CFF1F28
:1032A000089CFF1FD49BFF1FEC9BFF1F40A3FF1F29
:1032B0003F4B06A819680BF05BFC3E4906A80BF0D3
:1032C00021FC3D4B06A819680BF052FC394906A8B1
:1032D0000BF018FC394B06A819680BF021FC354996
:1032E00006A80BF00FFC364B06A819680BF018FC6B
:1032F000304906A80BF006FC324B06A819680BF003
:103300000FFC2C4906A80BF0FDFB2F4B06A81968F3
:103310000BF006FC274906A80BF0F4FB2B4B06A884
:1033200019680BF0FDFB234906A80BF0EBFB284BBB
:1033300006A819680BF0F4FB1E4906A80BF0E2FB87
:10334000244B06A819680BF0EBFB1A4906A80BF0F2
:10335000D9FB214B06A819780BF0E2FB06A91F4800
:103360000BF0CCF81D480BF0EFF8236943B11A6855
:103370001B4992698A4218D1186D30B105F04AFB99
:1033800006A80BF0FDFA0AB070BD586D0028F7D002
:1033900003F0AEFBF4E7436D002B7FF4E0ADE1E515
:1033A000984700283FF4DEADD9E518469047E7E797
:1033B00030A3FF1FD453010044A3FF1FC09AFF1F77
:1033C000C49AFF1FC89AFF1F009BFF1FE49AFF1FAC
:1033D000E89AFF1F089BFF1FEC9AFF1F388BFF1F07
:1033E000712A000010B5264C206984B0B0B1036882
:1033F000244A1B6B93420ED1036D002B32D06846DA
:1034000021490BF0FDFA214B1B7883B168460BF084
:10341000B7FA04B010BD98470028F0D119211C4814
:103420000AF04EFD1B480BF08FF804B010BD694642
:1034300013480BF063F812480BF086F81921164870
:103440000AF03EFD13480BF07FF82369002BDDD016
:103450001A68124992698A420ED1186D30B105F08E
:10346000D9FAD3E7436D002BC9D1D7E7586D0028AF
:10347000CCD003F03DFBC9E718469047C6E700BF34
:10348000388BFF1FE1250000F8530100D3A2FF1F76
:10349000DC530100A48FFF1FBC540100712A0000FF
:1034A0002DE9F0416420A4B0A34C09F0B1F90E233A
:1034B000A24A20461946137001F02CFC002800F0A7
:1034C0009A809F4B9F4A93E80300012313708DF865
:1034D0001810059002F07EF89B49024607A80EF0EE
:1034E000C9FA02F067F89949024603A80EF0C2FA39
:1034F00002F050F89549024604A80EF0BBFA07A95D
:1035000009A80EF0DDFA03A90EF0DAFA04A90EF00C
:10351000FBFA09AA0CA805AB8D490EF0ABFAD4F85A
:103520008454002D57D0002410AE2946234630463F
:103530000CAA8DF840408DF841408DF8424004F0CF
:103540003BFF844B844918700CAA44F20223304696
:1035500006F09AFE229B002B00F0C2805C200AF04D
:10356000B3FF04469DF84410129A9DF84C307B48F6
:103570007B4E206000252173A66014A9226123756B
:10358000656004F1180006F067FD6368754AA5657B
:1035900001336360744F754EA26014A8109706F053
:1035A00089FD6368356901336360002D00F0968002
:1035B0006B68013B6B6073B3346124B163685D1E5B
:1035C0006560002D5BD0012009F022F9FFF70AFFAA
:1035D00024B0BDE8F081D4F88814C9B110AE2B46F0
:1035E00030460CAA8DF871508DF872508DF87350DA
:1035F00003F0F2F8A5E705461E215D480AF060FCDD
:103600005C480AF0A1FF4F4B1D7024B0BDE8F0816B
:10361000084610AE95E72A685749D26A01938A4254
:103620006ED1A86D18B10DF009FC019BAB652B6D37
:10363000002B71D005F1180006F03CFD3569002D16
:10364000BAD02B684D4A5B6893425FD1A86D434B5B
:103650002B6018B10DF0F2FB0023AB652B6D05F16B
:103660001808002B60D0404606F024FDAF604046AD
:1036700006F020FD28465C210AF028FF9CE723681D
:103680003D4ADB6A93423ED1A06D10B10DF0D6FBEE
:10369000A565236D002B43D004F1180006F00AFD48
:1036A0002368364A5B68934233D1A06D2B4B23606D
:1036B00018B10DF0C3FB0023A365236D04F11805B9
:1036C000002B35D0284606F0F5FCA760284606F00A
:1036D000F1FC20465C210AF0F9FE74E734616EE7E4
:1036E000239C002C7FF43AAF204E1F4F109714A854
:1036F00006F0E0FC3569002D7FF45AAF356162E7D2
:10370000284690479AE720469847C9E728469847B1
:1037100052E72046984756E76B6D002B8AD18DE71C
:10372000636D002BB8D1BBE76B6D002B9BD19DE780
:10373000636D002BC6D1C8E74CA3FF1FD2A2FF1FA9
:1037400000550100D4A2FF1FFC50010004510100EC
:10375000F8540100D3A2FF1F50A3FF1F7C530100A8
:10376000E45201002C53010008530100388BFF1F65
:10377000D8540100A48FFF1FF5250000912D0000F3
:10378000024A034903480CF09BB900BFFC87FF1FA6
:10379000D92D0000388BFF1F38B51F282CD8DFE843
:1037A00010F045013701250117010801FA00EC006E
:1037B000DC00CC00BC00A300940087007A002B0042
:1037C0002B002B002B002B002B002B002B002B00A1
:1037D0002B002B006D0060005300460039002C00C8
:1037E00020009C4BD3F81C2132B140F2E73101227A
:1037F000C3F81C1183F83F2138BD964BD3F818212C
:10380000002AF9D040F2E7310122C3F8181183F8F9
:103810003E2138BD8F4BD3F81421002AECD040F262
:10382000E7310122C3F8141183F83D2138BD894BDB
:10383000D3F81021002ADFD040F2E7310122C3F88B
:10384000101183F83C2138BD824BD3F80C21002A9B
:10385000D2D040F2E7310122C3F80C1183F83B21AA
:1038600038BD7C4BD3F80821002AC5D040F2E7319F
:103870000122C3F8081183F83A2138BD754BD3F8FB
:103880000421002AB8D040F2E7310122C3F8041124
:1038900083F8392138BD6F4BD3F8D420002AABD040
:1038A00040F2E7310122C3F8D41083F82D2138BD4E
:1038B000694A684B1268D3F8D01091429CD001211C
:1038C000C3F8D02083F82C1138BD644B18680DF074
:1038D000BDF8604BD3F8CC2090428DD00122C3F8C4
:1038E000CC0083F82B2138BD5D4B5A4C1D68D4F8B1
:1038F000C8000CF051FE29460DF03AF800287FF47C
:103900007BAF584928460CF09FFE0DF079F8012353
:10391000C4F8C80084F82A3138BD534B18680DF03C
:1039200095F84C4BD3F8C42090423FF465AF012288
:10393000C3F8C40083F8292138BD4C4B18680DF03A
:1039400085F8444BD3F8C02090423FF455AF012294
:10395000C3F8C00083F8282138BD454B18680DF026
:1039600075F83C4BD3F8BC2090423FF445AF0122A0
:10397000C3F8BC0083F8272138BD3E4A354B126896
:10398000D3F8B81091423FF437AF0121C3F8B82003
:1039900083F8261138BD384A2E4B1268D3F8B4107C
:1039A00091423FF429AF0121C3F8B42083F82511D7
:1039B00038BD324A274B92F90020D3F8B0108A4222
:1039C0003FF41AAF0121C3F8B02083F8241138BDA9
:1039D0002B4A204B1288D3F8AC108A423FF40CAF2C
:1039E0000121C3F8AC2083F8231138BD254B2649AB
:1039F0001B68184AA1FB0313D2F8A8109B098B423D
:103A00003FF4FAAE0121C2F8A83082F8221138BD85
:103A10001E4A104B1268D3F8A41091423FF4ECAE4A
:103A20000121C3F8A42083F8211138BD1849094A9F
:103A30000B68D2F8A00098423FF4DEAE622B3FF450
:103A4000DBAE01246220C2F8A03082F82041086079
:103A500038BD00BF4C8BFF1F2C9CFF1F34A3FF1FE2
:103A6000089CFF1F0000C84244A3FF1F30A3FF1F94
:103A700040A3FF1F289CFF1F309CFF1FF09DFF1FCE
:103A8000C69FFF1FE89DFF1FD34D62104C9AFF1F7A
:103A90000488FF1F08B5094B094A1A6040F6055013
:103AA00008F076FF302008F0E9FF064B064A074988
:103AB0001960937843F0A003937008BD04A3FF1F1F
:103AC0007C8FFF1F00A3FF1F00B0064006B006401A
:103AD0007E2810B51BD07D2804460AD009F048F98D
:103AE000124B1888204400EB102000F0FF001880D3
:103AF00010BD09F03DF95D2009F03AF90B4A138831
:103B00007D3303EB132303F0FF03138010BD7D20EF
:103B100009F02EF95E2009F02BF9044A13887E3350
:103B200003EB132303F0FF03138010BDFEA2FF1F5E
:103B30002DE9F0413B4F3C4D3A68DFF80881002306
:103B40002B80137843F02003137098F8003084B072
:103B500063B93648364902680192019A04680868D8
:103B60000094344C121A0098226008603249C81838
:103B700090F820211AB990F84041052C40D903F162
:103B8000080003F1280251F8200051F822208DF896
:103B900009000B440026C2F30724C2F30741000AC0
:103BA0008DF80B2083F82061C2F3076210238DF893
:103BB0000A008DF80C408DF80D108DF80E208DF850
:103BC00008300DF107040DF10F062B78DB438DF85B
:103BD0000F3014F8010FFFF77BFFA642F5D117490C
:103BE000174B98F8002008681A700368DB6898473C
:103BF0003A68137803F0DF03137004B0BDE8F08176
:103C0000013480F840418DF808208DF809208DF8A6
:103C10000A208DF80B208DF80C208DF80D208DF8E2
:103C20000E20CEE700A3FF1FFEA2FF1FDCA8FF1F90
:103C3000D8A2FF1FDCA2FF1F4C8BFF1F04A3FF1F96
:103C4000AC8CFF1F24A3FF1F2DE9F04786B004AD05
:103C500000236B60049301932E4606AF741BE4B2FD
:103C600009F0ACF940B9072CFAD99DF81030102BA7
:103C70000CD006B0BDE8F08709F0B4F906F8010BE6
:103C80009DF81030102BF4D1BE42E7D19DF81130D1
:103C9000002BEED19DF81230032BEAD19DF81520B0
:103CA0009DF816309DF814108DF805208DF806301B
:103CB0008DF80410019D9DF81340364E364FC5F324
:103CC0000B000CF069FC04F00F0434490CF070FD9B
:103CD00056F8248047F82400414682460CF0AAFB9F
:103CE000002181460CF06CFE00284CD048462C493F
:103CF0000CF066FE002838D14FF07A5148460CF09F
:103D0000A3FC41460CF098FB46F824002D0BC5F3AC
:103D10000B0001950CF040FC20490CF049FD0134EA
:103D2000E5B247F8240057F8258056F8254040466C
:103D300021460CF07FFB002107460CF041FE28B322
:103D4000384617490CF03CFE90B146F825801549DD
:103D5000154A0B680393039B106809680291134985
:103D6000029C14601B1A0B6083E746F824A0CDE781
:103D70004FF07A5138460CF067FC21460CF05CFBA2
:103D800046F82500E3E709F10040B0E707F10040FD
:103D9000D7E700BFE0A2FF1F0CA3FF1F0000FA43FC
:103DA0009A99993EDCA8FF1F08A3FF1FF8A2FF1FE6
:103DB000F0B57E2883B01F4B25D0197809B30022B7
:103DC000A1281A7023D0F2281BD11B4B1B4F187847
:103DD0001B4E0130C0B2202892BF38703A70104696
:103DE0003D78002404E0D0B2202805460C461BD8BC
:103DF000335C421C002BF6D0D4B9FFF7CDFCFFF7A3
:103E000097FE03B0F0BD01221A7003B0F0BD0D4B58
:103E10000D4A1B680193019B12689B1AB3F52A7F18
:103E2000EFD9FFF711FFECE71D4618460C46DFE718
:103E30003D70E2E7FCA2FF1FAC8CFF1F24A3FF1F15
:103E40004C8BFF1FDCA8FF1F08A3FF1F08B504E071
:103E500009F0C8F8C0B2FFF7ABFF09F0AFF80028CF
:103E6000F6D108BD064B07491A6882B00092009847
:103E70001B680193019A044B08601A6002B07047F6
:103E8000DCA8FF1FD8A2FF1F08A3FF1F08B5002151
:103E90001B2008F095FC00211A2008F091FC00215D
:103EA0001C2008F08DFC00211F20BDE8084008F010
:103EB00087BC00BF2DE9F04F1B2083B008F044FA07
:103EC0000CF06EFB6F49704E704D714CDFF8F4A131
:103ED000704F0CF0B9FB4FF066510CF0B5FB6E491A
:103EE0000CF0B2FB6D490CF0A5FA31680CF0A4FAA5
:103EF00030601A2008F028FA0CF052FB61490CF0EF
:103F0000A3FB4FF066510CF09FFB63490CF09CFB48
:103F100063490CF08FFA29680CF08EFA28601C2097
:103F200008F012FA0CF03CFB56490CF08DFB4FF0F8
:103F300066510CF089FB58490CF086FB59490CF08E
:103F40007BFA21680CF078FA20601F2008F0FCF959
:103F50000CF026FB4B490CF077FB4FF066510CF050
:103F600073FB4D490CF070FB00210CF065FADAF898
:103F700000100CF061FA02463878CAF800200130CF
:103F8000C0B232280192387078D90CF009FB834610
:103F9000014630680CF00CFC434B81465946C3F88F
:103FA000009028680CF004FC404B80465946C3F84A
:103FB000008020680CF0FCFB019A3D4B0090864687
:103FC00059461046C3F800E00CF0F2FB394B3A4971
:103FD000834600224846C3F800B03A700CF0C8FC93
:103FE00020B1314B4FF00009C3F8009033494046EF
:103FF0000CF0BEFC20B12D4B4FF00008C3F8008040
:10400000284900980CF0B4FC18B1294B00271F6018
:10401000009700235846194601930CF0A9FC18B1EB
:10402000019B244A9B461360484625494FF00009EE
:10403000C6F80090C5F80090C4F80090CAF8009047
:104040000CF0BEFC10B1184BC3F8009040461C4960
:104050000CF0B6FC10B1154A002313600098184903
:104060000CF0AEFC10B1124A0023136058461449FC
:104070000CF0A6FC10B10E4A0023136003B0BDE89B
:10408000F08F00BF333353402CA3FF1F28A3FF1F23
:1040900038A3FF1F25A3FF1F0000C8428FC2F53EB3
:1040A000B81E053E85EBD13E40A3FF1F30A3FF1F86
:1040B00044A3FF1F34A3FF1F8FC2F5BEB81E05BE69
:1040C000000048433CA3FF1F90F8612090F8600077
:1040D000101A704790F8603090F861209A4205D924
:1040E0005A1C034480F86020187E70474FF0FF3060
:1040F000704700BF90F8603090F861209A4286BF08
:104100001B18187E4FF0FF30704700BF704700BF8C
:1041100038B50546B0F8AE0090B195F8AD3014460C
:10412000C3F1490294420CD805F1630018442246B9
:1041300007F0CAFE95F8AD30234485F8AD3020462F
:1041400038BD012014462871EEE700BFB0F8AE304C
:104150006BB190F8AD30482B07D8C218013380F806
:10416000AD30012082F863107047012303710020F5
:10417000704700BF0023426980F8603080F86130EA
:1041800080F8AC3080F8AD3080F8AE3080F8AF30D9
:1041900006CA30B40D680469C0F8B4302A43C0F8C8
:1041A000B8300A60A370426990F8B13016491468BB
:1041B00013441D7A5B7B01EBC5051B026D6803F49C
:1041C000E06343F064032B6090F8B23013449D7CAD
:1041D000DB7D01EBC5011B02496803F4E06343F09A
:1041E00064030B6021685368194205D003692722D4
:1041F0005A70036904229A71036920225A71036973
:1042000080229A7030BC7047DC72010010B50269E0
:10421000D378DBB2D90604463ED510215806D170BA
:1042200039D503F0040303F0FF02002B52D03E49BE
:10423000D4F8B42000230B7084F8AD30002A5BD092
:10424000904794F8AD30002B56D02369D0229A7055
:10425000236994F863201A712369012284F8AC2041
:104260000222DA7010BD314B84F8B0009C424AD073
:104270002F4B9C4252D094F8611013794729DBB23E
:1042800007D82948007820B16018013184F86110FE
:1042900003760223D37010BD5906C2D4917801F081
:1042A000100101F0FF000029DDD013F001031ED141
:1042B00094F8AC1094F8AD00884281BF4B1C0919EA
:1042C00084F8AC3091F8633013712369D0229A706E
:1042D0002269DEE7236984F86120C0229A7023698D
:1042E000114A1979012111700222DA7010BDC02320
:1042F000937022691379CCE70122002384F8AD2062
:1043000084F86330A1E7626994F8B1300949134435
:104310000322187A08F066F92269ACE7626994F81A
:10432000B1300549F3E700BF48A3FF1FB08CFF1F62
:104330006C8DFF1F9D430000A94300000369DB78DB
:1043400003F0200373B190F8B0300133DBB2012BDE
:1043500080F8B0301BD9426990F8B1301344187A14
:1043600008F0BCB970B5426903F0FF0590F8B130B0
:1043700013440446187A08F0B1F9D4F8B8305BB1A8
:1043800084F8605094F86100BDE87040184790F8D8
:10439000AF30002BDFD0704770BD00BF0148FFF782
:1043A000CDBF00BFB08CFF1F0148FFF7C7BF00BFE4
:1043B0006C8DFF1F2DE9F047374FDFF8E0903B6829
:1043C000026982B006460093DDF800800021A02536
:1043D000D3789B065BD53B680193019BC8EB030335
:1043E0000F2BF5D949B1102BF2D000209070336912
:1043F00080229A7002B0BDE8F087726996F8B130F9
:1044000013440521187A08F0DBF9726996F8B13087
:104410001344012193F812A0504608F0D1F9092461
:104420000021504608F0B8F92B46013BFDD101218F
:10443000504608F0B1F92B46013BFDD1013CEFD1CC
:10444000706996F8B11001444FF4A0720C7A4B7B5E
:1044500009EBC4011B02496803F4E06343F0640301
:104460000B6096F8B2300344997CDB7D09EBC10107
:104470001B02496803F4E06343F064030B60013AF4
:10448000FDD13269D3789B064FF00101A3D40120FE
:1044900002B0BDE8F08700BFDCA8FF1FDC7201009E
:1044A000F0B503691222DA700269937803F02003F1
:1044B00085B004460D46002B5ED0B42393703C4972
:1044C00022690B680093009E05E00B680193019B35
:1044D0009B1B042B42D8D37803F0200303F0FF008A
:1044E000002BF2D094F8AD30002B31D04FF0000EFD
:1044F0004FF0020C04EB0E0393F8633013710B685A
:104500000393039F206907E09B060DD50B68029378
:10451000029BDB1B052B28D8C378DBB203F0020219
:1045200002F0FF06002AEFD080F803C02669F37876
:10453000DBB2DF0632462DD49F062BD5DB0731D404
:104540000EF1010E94F8AD305FFA8EFE7345D1D8AE
:1045500000201DBB002384F8AE3004E09070236976
:1045600080229A70042005B0F0BD867023698022F5
:1045700004209A7005B0F0BD03F0FF06FFF71AFFA4
:1045800010B9042005B0F0BD236984F8AF60B022F3
:104590009A7094E78023B3700420DAE726698023B9
:1045A000B370D7E7BEF1000F0CBF02200320F6E77F
:1045B000DCA8FF1F2DE9F04106690025122780F8CD
:1045C000605080F86150F770D0F810C09CF802E09D
:1045D0000EF0200E88B00446884615461E46BEF1F1
:1045E000000F49D0B4238CF80230784B21691A6847
:1045F0000092DDF800E006E01A6801920198CEEB27
:104600000000042830D8C87800F0200000F0FF0730
:104610000028F1D04FEA480242F00102D2B20A71FA
:104620001A680292DDF808E0206906E01A68039231
:104630000399CEEB010105292AD8C17801F00201C6
:1046400001F0FF070029F1D04FF0020C80F803C001
:104650002269D17811F0110722D12DBB002E0CBF99
:10466000A0238023937003E08F70236980229A70C7
:10467000384608B0BDE8F0810EF0FF07FFF79AFE5C
:104680000028F5D0236984F8AF70B0229A70ACE7A7
:1046900087702369802238469A7008B0BDE8F0819F
:1046A000802393700027E3E7012D75D0A02191703E
:1046B00021690A79BE4667464FF0A80C1A68049231
:1046C000049805E01A680592059A121A052A4AD834
:1046D000CA7802F0020202F0FF08002AF2D0CF707E
:1046E0002169CA78D2B212F0100F08465AD1920648
:1046F00058D5013DEDB2012D49D0BEF1470F3BD950
:104700000A79012DDAD11A680692069D05E01A6829
:104710000792079A521B052A46D8C27802F0020275
:1047200002F0FF01002AF2D00223C3702269D3787D
:10473000DBB2D9063AD49B0634D5B023BEF1470F7D
:1047400093703FD8226904EB0E0312791A760EF1AA
:10475000010E5FFA8EFE16B1236980229A7084F8EA
:1047600061E0774684E781F80280236980229A70AD
:10477000774684F861E07BE704EB0E0291F8048051
:1047800082F818800EF1010E5FFA8EFEB9E781F80B
:1047900002C021690846B0E7A82191702069BE4691
:1047A0000279B0E7774663E78170DEE71021A02346
:1047B000D170013BFDD12269937803F0F70377466E
:1047C000937055E723691B79C5E700BFDCA8FF1F7D
:1047D0000148FFF71BBD00BFB08CFF1F0148FFF76A
:1047E00015BD00BF6C8DFF1F704700BF30B583B093
:1047F00005460C4607F0B6FF1C4B984204D8002330
:104800002B80238003B030BD694609F0D5FF9DF8A9
:1048100006309DF805109DF80420503B9BB27F2B7D
:1048200005D80131C9B20C2901D81F2A11D900219C
:104830009DF80200298017289DF801209DF800307E
:1048400003D83B2A01D83B2B09D90023238003B08E
:1048500030BD42EA411242EA432399B2E8E75201ED
:1048600042EAC02242EA53039BB2EFE7FFA5CE1211
:10487000F0B5012B95B005463AD0022B01F10401A9
:1048800040F20223684618BF002305F0FDFC129B8E
:10489000002B36D05C2009F017FE04469DF804601A
:1048A0001E481F49029A9DF80C30206004AF267301
:1048B000A1600026394604F1180022612375666064
:1048C00005F0CAFB63681748174AA66501334FF421
:1048D0007A712E712E732C61A0606360A9602A60CA
:1048E000124B0093384605F0E5FB284615B0F0BDA5
:1048F00044F202230431684605F0C6FC129B002BEB
:10490000C8D1139B002BC5D14FF47A71064A2B7185
:104910002B732B61A9602A6004AFE1E77C5301008F
:10492000E45201002C5301005053010008530100D0
:1049300010B5D0F884448EB0A4B10A46684621462A
:10494000012300248DF800408DF801408DF80240CD
:1049500003F032FD08B90EB010BD684604F082FDC8
:104960000EB010BDD0F888040028F4D00A46012308
:10497000014668468DF831408DF832408DF833405D
:1049800001F02AFF0028E6D0684601F08DFF0EB046
:1049900010BD00BF10B5D0F884448EB07CB10A467B
:1049A000012304F58961684600248DF800408DF8E4
:1049B00001408DF8024003F039FC0EB010BDD0F874
:1049C00088040028F9D00A46012300F58961684669
:1049D0008DF831408DF832408DF8334002F052F9B5
:1049E0000EB010BD30B5D0F884448FB074B100253E
:1049F0000A462B46214668468DF800508DF8015036
:104A00008DF8025003F0D8FC0FB030BDD0F8880408
:104A10000028F9D00A462346014668468DF8314001
:104A20008DF832408DF8334001F0D6FE0FB030BD26
:104A300038B50546D0F88404C0B1C469013C05F01E
:104A400049FAD5F88434241A43B198794FF40073A5
:104A500003FA00F080B2A0FB040138BDD5F8883419
:104A600063B1D3F83C04A0FB040138BDD5F8880439
:104A700020B1D0F8304403F06FF9E2E700200021C4
:104A800038BD00BF30B5D0F884448FB0A4B1002544
:104A90000A462B46214668468DF800508DF8015095
:104AA0008DF8025003F088FC08B90FB030BD68469D
:104AB00003F070FE0FB030BDD0F888040028F4D0A9
:104AC0000A462346014668468DF831408DF832404B
:104AD0008DF8334001F080FE0028E6D0684601F0F2
:104AE00041FF0FB030BD00BF70B5D0F884448EB028
:104AF0001646C4B1002504F589640A462B462146B2
:104B000068468DF800508DF801508DF8025003F082
:104B1000F1FB08B90EB070BD32462146684603F07D
:104B20007BFD0EB070BDD0F888040028F2D000F5EF
:104B300089650A462346294668468DF831408DF836
:104B400032408DF8334001F0D7FD0028E2D03246E4
:104B50002946684602F0EEF80EB070BDD0F8842405
:104B60004AB19179D0694FF400738B409BB2013800
:104B7000A3FB00017047D0F8882432B1D2F830345A
:104B8000D2F83C04A3FB00017047002000217047CD
:104B90002DE9F041D0F8904492B04CB11F46236803
:104BA00005469B6920469847B0F5405F064603D806
:104BB000002012B0BDE8F0814FF400700CF036F91F
:104BC00080460028F4D0B6F1806F07AE3B46214600
:104BD0003046424637D804F01FFF044640460CF0EA
:104BE0002DF9002CE4D095F8AC44FF2C34D095F886
:104BF000ADC4D5F8B0E4D5F8B4748DF804408DF8A0
:104C000005C0CDF808E0039701AB93E8070004ABBB
:104C100083E807008DF810408DF811C0CDF814E03E
:104C2000069793E8070086E8070005F2944496E8A3
:104C30000E00204605F03EFC95F8A734C5F89044D8
:104C40002BB10120B5E702F0B9FB0446C6E72146C7
:104C5000281D05F0B5FAF4E7002385F8AC44C5F843
:104C600090340120A5E700BFF0B50446D0F89004C9
:104C70008BB088B394F8BC54002D3AD194F8AC644E
:104C8000FF2E2DD094F8ADC4D4F8B0E4D4F8B474A9
:104C90008DF800608DF801C0CDF804E002979DE822
:104CA000070003AB83E807008DF80C608DF80DC09A
:104CB000CDF810E0059793E8070006AB83E80700FE
:104CC00004F294460ECB304605F0F4FB94F8A7347A
:104CD000C4F89064ABB1284684F8BC040BB0F0BDB6
:104CE000284684F8AC64C4F8905484F8BC040BB033
:104CF000F0BD06AA0A2105F0D5FC84F8BC040BB06F
:104D0000F0BD3146201D05F05BFA84F8BC040BB001
:104D1000F0BD00BF2DE9F0410E468AB0054620489F
:104D200000F0D4FE212E03D900200AB0BDE8F081A6
:104D300000241C4F8DF804608DF805400394029701
:104D400001AB93E8070004AB83E807008DF811403E
:104D5000059706948DF8106093E8070007AB83E889
:104D6000070005F294480ECB85F8AC6485F8AD4495
:104D7000C5F8B444C5F8B074404605F09BFB95F8FF
:104D8000A734C5F890842BB1204685F8BC040AB03E
:104D9000BDE8F0814146281D05F012FAF5E700BF95
:104DA000ED47000040787D01F0B4114B114D124CDD
:104DB0001D602926FF25C3F89C4400240F4883F872
:104DC000A764012783F8BD5483F8AA4483F8B84444
:104DD000C3F8940483F8A574C3F88444C3F88844E2
:104DE00083F8BC44064A07491846F0BC0AF068BE7E
:104DF0004CA3FF1F745501000110013894590100A4
:104E0000FC87FF1FE947000010B4047F4160022CBB
:104E1000C26002D010BC09F057B9836810BC1847B3
:104E20002DE9F0410468E56815F0807F794D256033
:104E300052D1DF0740F1B380002900F0E3800D7804
:104E4000012B18BF45F000456563013190F82480BF
:104E500003F1FF3C48EA0828BCF1000F00F0A880ED
:104E600021B14D7811F8028B45EA082845682E7A61
:104E7000BCF1020F06F1FF364FEA06360CBF48F0D0
:104E8000805548F01045B6B26563ACF1020C08E0FD
:104E90000AB114700132013B05F47045B54216D9D0
:104EA0000468E56A15F0F00FF6D0A46B13F0010F5B
:104EB00017464FEA242EEBD11AB107F802EB5470D3
:104EC0003A4605F47045B542A3F10203E8D8BCF1B7
:104ED000000F6DD00468C3E7DD074CD5002900F052
:104EE00089800D78012B18BF45F0004565630131BD
:104EF00003F1FF3E90F824C0BEF1000F41D029B16C
:104F000091F801C00D78023145EA0C2C45682E7AE3
:104F1000BEF1020F06F1FF364FEA06360CBF4CF029
:104F200080554CF01045B6B26563AEF1020E08E054
:104F30000AB114700132013B05F47045B54215D930
:104F40000468E56A15F0F00FF6D013F0010F17466C
:104F5000A46BEDD122B107F8024B241254703A46EB
:104F600005F47045B542A3F10203E9D8BEF1000F84
:104F700007D00468C3E79E4690F824C0BEF1000F36
:104F8000BDD11BB30468E16A11F0F00FFBD0A16B37
:104F9000DC071DD50AB111700132013BF1E790F831
:104FA00024809C4648EA0828BCF1000F7FF458AFE3
:104FB00063B10468E16A11F0F00FFBD0DE07A16B6A
:104FC0000FD50AB111700132013BF1E7BDE8F08164
:104FD0002AB114460D1204F8021B55702246023BFA
:104FE000CFE72AB114460D1204F8025B5170224635
:104FF000023BDDE790F82450012B18BF45F0004537
:10500000656375E790F82450012B18BF45F0004503
:1050100065631BE700041F80F0B4464B464A186BDB
:10502000DC6A01791170454922790A709A6A00791F
:105030000870002A46D05968C9688A423ED821685B
:10504000CC8B240402F1FF3065D4C0F30E00C8837A
:10505000C88B80B2C882196B0968C88B000452D40F
:10506000C2F30E00C883C88B002480B212F1FF3255
:10507000C88218BF01229C62D96A2E4809680D684F
:1050800000F12404A54236D00068C46814F0804FB3
:105090000C680D6815BF248824780235013544F06A
:1050A00000440D604463196B254B0979197021493F
:1050B00012B1CA6A12791A70F0BC7047521A9A6219
:1050C0000122D9E7586B196805681E4C0A63CC6247
:1050D000CC682D681C4E24F080440327B542CC6078
:1050E00083F825701FD1037F4260022BC2601ED05F
:1050F000F0BC08F0E9BF016890F82400CC6840F0EB
:1051000000404863CFE7CC8BC2F3080004F47E4430
:105110002043C883A7E7CC8BC0F3080004F47E4487
:105120002043C88394E72B461146F0BC1847836898
:10513000F0BC1847288EFF1F1F8000401C800040D5
:105140001B80004000000FFF094E000090E80C009B
:10515000F0B41C6859682568164F174E2943216022
:10516000164D17491760D66015611160417A154ACE
:105170005C180A3194F8244053F8215002EBC40122
:1051800049680D60017A5C1803EB8101247ECD69CA
:1051900002EBC40149680D60817A581803EB810362
:1051A00090F83000596B02EBC002F0BC53681960F4
:1051B000704700BF01401F00011000380110007847
:1051C00000001F80DC7201000BB1FFF729BE7047A1
:1051D000644A654B2DE9F04F644EDFF8A0A1644CA2
:1051E000DFF89091A2FB00524FEA124C0CF1040739
:1051F000A3FB0025A6FB0062A7FB0AAB6D09D20A40
:10520000A3FB0563A4FB0264CBEB07060BEB56067E
:105210005B09B6082409C6EBC606C3EB031304EB0F
:105220004404A5EB8303BE1BC5EB0515A2EBC4022A
:10523000A0EB8500013600248A7008704B70CE7098
:10524000224640F26D1B4FF064084FF4C87A0EE01E
:10525000C6EBE5150AFB153570BB002D14BF58468B
:105260004FF4B7700244944504F1010413D3E7B23C
:1052700007F2B27389FB0305DE17C6EB651013F066
:10528000030E08FB1030E3D040F26D100244944549
:1052900004F10104EBD28F71BEF1000F0FD135483C
:1052A000DE1780FB0340C6EB6014642505FB143455
:1052B000BCB34FF4B77405E04FF4B770D2E740F2D7
:1052C0006D14DE172B482C4D80FB0370C6EB601865
:1052D000121BC6EBE01664244FF4C87000FB1636B0
:1052E00004FB1838C2EB0C020120002302E001305D
:1052F000C0B20133012BDFB220D05C5D944209D8EB
:105300000C28A2EB0402F2D10D2701320A714F7171
:10531000BDE8F08F0137FFB201320A714F71BDE86D
:10532000F08F4FF4C874C6EBE01004FB1030002877
:1053300040F26D1408BF4FF4B774C3E7BEF1000F1D
:105340000AD1B8F1000F0BD1002E14BF1C241D246C
:10535000A24203D3121BCAE71C24F9E70227D4E7B1
:105360001D24F5E707452EC289888888C5B3A29118
:10537000ABAAAAAA1F85EB51A05601002549922489
:1053800010B503490446FFF723FF024B1C6010BD14
:1053900010A8FF1F0CA8FF1F2DE9F041394986799D
:1053A00001FB06F106B306F2B27C40F2B373DFF8FC
:1053B000D8E064274FF4C8780DE013F0030F09D14B
:1053C000C2EBE51208FB123204B91AB901F5A83193
:1053D00001F5C07101338EFB0325DA17C2EB6514AA
:1053E000634507FB1434E8D14779012F2FDD264CA4
:1053F000264ADFF89CE006F2B27384FB0346DC1712
:10540000C4EB661C6425C4EBE6164FF4C87405FBB8
:105410001C3C04FB163603F00305012307E0147857
:105420000133BB420EFB041102F101020FD0022B2B
:10543000F5D1002DF3D1BCF1000F1BD001F51811EF
:1054400001F56E510133BB4202F10102EFD1437805
:105450008578047802790E48C3EB03134FF4616634
:105460009B0006FB05332344013A00FB023008444D
:10547000BDE8F081002ED2D101F5181101F56E5171
:10548000E0E700BF8033E1011F85EB51A05601002A
:1054900080510100F0B5204C204E23683268204D29
:1054A00083B028680093009B9B1AB3F57A7F0FD3D3
:1054B000013000E0084623680093009B02F57A72F1
:1054C0009B1AB3F57A7F00F10101F3D228603260B4
:1054D000144F3B6898420FD3134B1B6863B1984736
:1054E000124B58B912491A680B78286800330244E5
:1054F00018BF01233A600B7003B0F0BD226801921F
:105500001B680B4A019C28600344022134603B6005
:10551000117003B0F0BD00BFDCA8FF1F24A8FF1F5F
:1055200018A8FF1F28A8FF1F20A8FF1F608EFF1FBD
:105530001CA8FF1F08B5FFF7ADFF044B1B6898427E
:1055400001D0FFF71DFF024B987808BD0CA8FF1F84
:1055500010A8FF1F08B5FFF79DFF044B1B6898427A
:1055600001D0FFF70DFF024B587808BD0CA8FF1FB4
:1055700010A8FF1F08B5FFF78DFF044B1B6898426A
:1055800001D0FFF7FDFE024B187808BD0CA8FF1FE5
:1055900010A8FF1F08B5FFF77DFF044B1B6898425A
:1055A00001D0FFF7EDFE024B187908BD0CA8FF1FD4
:1055B00010A8FF1F08B5FFF76DFF044B1B6898424A
:1055C00001D0FFF7DDFE024B587908BD0CA8FF1F84
:1055D00010A8FF1F08B5FFF75DFF054B1B68984239
:1055E00001D0FFF7CDFE034B987900F2B27008BDF1
:1055F0000CA8FF1F10A8FF1FF0B583B00746099C39
:10560000089E632CCCBFA4F2B27504F11E050E4CAB
:105610002046A57166712371A77061702270FFF733
:10562000BBFE0A4B0A4A1B6812680193094E0A4DD9
:105630000A490B4B019C30601044022228600C6028
:105640001A7003B0F0BD00BF10A8FF1FDCA8FF1F39
:10565000608EFF1F18A8FF1F28A8FF1F24A8FF1F88
:105660001CA8FF1F0349044A044B09681160186015
:10567000FFF710BF18A8FF1F28A8FF1F20A8FF1FB3
:1056800010B5044608F0CEFE204610BDF0B541F638
:1056900058320F24DFF830E0C0F838110827002115
:1056A000AC2640F2137582600422C0F800E080F856
:1056B0002870468585850471C4714171417382717A
:1056C00080F82720F0BD00BFA08601002DE9F84F2B
:1056D000B0F82A90002480460473054648460AF034
:1056E0005BFF35F82C7F824638460AF055FF51465D
:1056F0000AF0A0FE014683464FF080400BF058F8B8
:105700004FF07C51064658460AF09EFF51460AF07B
:1057100093FE314600F100400AF096FF234608F15F
:105720006C0108F14C0408F1AC020233202B25F87F
:10573000029F24F8027F41F8046F42F8040FF4D16D
:10574000D8F83801D8F80010036836221B6A984749
:10575000024BD8F838211A60BDE8F88F3CA8FF1F2B
:1057600038B5D0F8F030054663B100241859043438
:1057700018B10BF063FBD5F8F030402CF6D1184689
:105780000BF05CFBD5F8F43063B1002418590434F5
:1057900018B10BF053FBD5F8F430402CF6D1184675
:1057A0000BF04CFB284638BDF8B52F4E3368DB07AD
:1057B000044647D52D4D07F009F82B68A268C01A9A
:1057C00082423CBF0023237300260127D4F838010E
:1057D00003681B699847002832DD06F0F7FFD4F80C
:1057E000383128601A68184653699847237BC0B23D
:1057F000A0738BB92379834202D026736073E5E7E7
:10580000627B6379934204D0E379A1791340994292
:10581000F3D127736073D9E7182B04DCE218013346
:10582000DBB290732373192BE8D16379834216D0CE
:10583000E379A2791840824211D000202073F8BD8C
:105840000020F8BD304606F045FE0028B2D006F034
:10585000BDFF064D2860304606F042FEABE7002350
:1058600023730120F8BD00BF34A8FF1F38A8FF1F15
:105870002DE9F0410D46174698460446FFF794FF80
:10588000002800F0A580002D00F08E80227CE37BB4
:1058900043EA0223C3F30A032B80637C227C5B016F
:1058A00043EAD203C3F30A036B80A27C637CE17CEE
:1058B000920042EA931343EA8123C3F30A03AB80C5
:1058C000237DE27CDB0143EA5203C3F30A03EB804E
:1058D000637D227D1B0143EA1213C3F30A032B816C
:1058E000A27D637DE17D520042EAD31343EA412366
:1058F000C3F30A036B81237EE27D9B0143EA92039B
:10590000C3F30A03AB81637E227EDB0043EA5213BA
:10591000EB81E27EA37E43EA0223C3F30A032B82D8
:10592000237FE27E5B0143EAD203C3F30A036B8267
:10593000217F637FA27F9B0043EA911141EA82218C
:10594000C1F30A01A982E37FA27FDB0143EA52038C
:10595000C3F30A03EB8294F82030E27F1B0143EA91
:105960001213C3F30A032B8394F8216094F82010D8
:1059700094F82230760046EAD11141EA4321C1F37E
:105980000A01698394F8233094F822209B0143EAAA
:105990009203C3F30A03AB8394F8243094F82320D2
:1059A000DB0043EA5213EB83B8F1000F08D094F800
:1059B000253094F82720134018BF012388F80030C1
:1059C00037B194F8253094F82820134002D13B7069
:1059D000BDE8F08101233B70BDE8F08130B4054B98
:1059E000054A0649802400251C711D60184630BCFC
:1059F0000AF066B82CA8FF1FFC87FF1F8156000025
:105A0000F8B5044600F110064068E16803683246C4
:105A10001B6A984740B123789A07054607D423F0BC
:105A2000010323702846F8BD00252846F8BD6068AC
:105A3000E1680268A368176A19443246B84700282B
:105A4000F2D02378EBE700BFF8B54568FDB1C36835
:105A50008B42044617460E460ED00378DA0712D45E
:105A60007B0716D504F1100507F00302002313434A
:105A700023702846E660F8BD10F9103B07F00302DA
:105A800013432370F8BDFFF7BBFF0028E8D10020C7
:105A9000F8BD6068036804F11005DB682A463146EA
:105AA00098470028E0D1F2E70378DB0701D4012012
:105AB0007047FFF7A5BF00BF10B4034B002414705C
:105AC0001B6810BC184700BF40A8FF1F024A034BC9
:105AD000034911601860704744A8FF1F40A8FF1FCA
